:020000040800F2
:1000000000000220AD2B0108290D00082D0D00086D
:10001000990D0008E90D0008390E000800000000E5
:100020000000000000000000000000006126010840
:10003000A50E00080000000001270108652701083F
:10004000012C0108012C0108012C0108012C0108D8
:10005000012C0108012C0108012C0108012C0108C8
:10006000012C0108012C0108012C0108012C0108B8
:10007000012C0108012C0108012C0108012C0108A8
:10008000012C0108012C0108012C0108012C010898
:10009000012C0108012C0108012C0108012C010888
:1000A000012C0108012C0108012C0108012C010878
:1000B000012C0108012C0108012C0108012C010868
:1000C000012C0108012C0108012C0108012C010858
:1000D000012C0108012C0108012C0108012C010848
:1000E000012C0108012C010800000000012C01086E
:1000F000012C0108012C0108012C0108012C010828
:10010000012C0108012C0108012C0108012C010817
:10011000012C0108012C0108A90E0008012C01087E
:10012000012C0108012C0108012C0108012C0108F7
:10013000012C0108B90E0008012C0108012C01084E
:1001400000000000000000000000000000000000AF
:10015000012C0108012C0108012C0108012C0108C7
:10016000012C0108012C0108012C0108012C0108B7
:10017000012C0108E50E0008012C01080000000018
:10018000012C0108012C0108012C0108012C010897
:10019000012C0108012C0108012C0108012C010887
:1001A000012C0108012C0108012C010800000000AD
:1001B000012C0108012C0108012C0108012C010867
:1001C000012C0108012C01080000000000000000C3
:1001D0000000000000000000012C010800000000E9
:1001E000000000000000000000000000000000000F
:1001F0000000000000000000012C0108012C010893
:10020000012C0108012C010800000000012C01084C
:10021000012C0108012C0108012C0108012C010806
:10022000012C010800000000012C01080000000062
:10023000012C0108012C010800000000012C01081C
:10024000012C0108012C0108012C0108012C0108D6
:10025000012C0108012C0108012C0108012C0108C6
:10026000012C0108012C0108012C0108012C0108B6
:10027000012C0108012C0108012C010800000000DC
:10028000012C0108012C0108012C0108012C010896
:1002900000000000012C0108012C010800000000F2
:1002A00000000000012C0108012C0108012C0108AC
:1002B000012C0108012C0108012C0108012C010866
:0C02C000012C0108012C0108012C010890
:1002D000034613F8012B002AFBD1181A0138704786
:1002E00001F0FF01102A2BDB10F0070F08D010F8E7
:1002F000013B013A8B422DD010F0070F42B3F6D1EB
:10030000F0B441EA012141EA014122F007047FF003
:1003100000070023F0E80256083C85EA010586EA5A
:10032000010685FA47F5A3FA87F586FA47F6A5FA96
:1003300087F68EB9EED1F0BC01F0FF0102F00702A2
:1003400032B110F8013B013A83EA010313B1F8D14D
:100350000020704701387047002D06BF354603382E
:10036000073815F0010F07D1013015F4807F02BF67
:10037000013015F4C03F0130F0BC0138704700BFB8
:1003800053B94AB9002908BF00281CBF4FF0FF31FC
:100390004FF0FF3000F00CB8ADF1080C6DE904CE61
:1003A00013F064FEDDF804E0DDE9022304B07047D9
:1003B000704700BF0348044B834202D0034B03B194
:1003C00018477047840100208401002000000000CD
:1003D0000548064B1B1AD90F01EBA301491002D0A7
:1003E000034B03B1184770478401002084010020AB
:1003F0000000000010B5064C237843B9FFF7DAFF80
:10040000044B13B10448AFF300800123237010BDE7
:1004100084010020000000006443010808B5054B7A
:100420001BB105490548AFF30080BDE80840FFF760
:10043000CFBF00BF00000000880100206443010816
:1004400070B584B00024009401940294039405F0E4
:1004500087F901268DF800608DF801404FF0405378
:1004600001930E238DF808308DF809408DF80A604D
:1004700003238DF80B308DF80C408DF80D608DF84E
:100480000E408DF80F40684605F088F98DF8016040
:1004900009238DF808308DF80A408DF80F60684602
:1004A00005F07CF902238DF801304FF010530193D1
:1004B00012238DF808308DF80A608DF80F406846D9
:1004C00005F06CF9042005F059F904B070BD000086
:1004D00070B58CB007AD00240794089409940A9471
:1004E0000B942E4BD3F8E02042F08002C3F8E020BA
:1004F000D3F8E02002F080020192019AD3F8E020C4
:1005000042F00402C3F8E020D3F8E02002F0040235
:100510000292029AD3F8E02042F00102C3F8E020F0
:10052000D3F8E02002F001020392039AD3F8E0200E
:1005300042F01002C3F8E020D3F8E02002F01002ED
:100540000492049AD3F8E02042F00202C3F8E020BB
:10055000D3F8E02002F002020592059AD3F8E020D9
:1005600042F00802C3F8E020D3F8E03003F00803BB
:100570000693069B0A4E22464FF4C061304605F0B2
:1005800047F84FF4C06307930123089309940A9432
:100590002946304604F032FF0CB070BD00440258CA
:1005A000000C0258F0B58FB000F036FF0EF008FFD7
:1005B0004FF47A7011F05DFD3E4B0D9309F0B2FFE0
:1005C00007464DF26F720DA909F06AFF18213A48EB
:1005D0000EF0D6FF642011F04CFD02E0642011F013
:1005E00048FD364B93F82D3013F0040FF6D00D2153
:1005F00033480EF0C5FF642011F03BFD02E064209B
:1006000011F037FD2D4B93F82D3013F0010FF6D07C
:1006100012212C480EF0B4FF642011F02AFD4FF493
:10062000FA6011F026FD112127480EF0A9FF642081
:1006300011F01FFD15E02346244A3221684612F0CE
:10064000E1FA6846FFF744FE81B268460EF098FF73
:100650004FF400711E4804F0E1FF4FF47A7011F07E
:1006600008FD4FF47A7011F004FD4FF4207214214C
:1006700036200CF055FF0646B8B14568154C0FCC36
:1006800028606960AA60EB602068286131463846BE
:1006900009F0E2FE044630460CF0E0FE002CCAD120
:1006A0000D210D480EF06CFFD2E714210B480EF01F
:1006B00067FFCDE7C0A801011C440108B005002078
:1006C00038440108484401085C4401089844010882
:1006D000000C02587044010888440108B044010825
:1006E00008B50268034B9A4200D008BD05F0B0F887
:1006F000FBE700BF0010004000B583B072B61DE0FC
:100700000023009302E0009B01330093009A1E4BEC
:100710009A42F8D91D4C01224FF40071204604F092
:1007200077FF01224FF48061204604F071FF11F041
:100730005AFCE8B14FF4FA7011F09BFC134C002204
:100740004FF40071204604F063FF00224FF48061F3
:10075000204604F05DFF11F046FC0028D0D04FF495
:10076000FA7011F086FC0F2109480EF009FFD1E75D
:100770000023019302E0019B01330193019A024B94
:100780009A42F8D9DAE700BF7F841E00000C0258B5
:10079000C844010808B51448144B03600023836063
:1007A000C360037443748374102242610122826126
:1007B000C261026242628262C26202634363836315
:1007C000C3630364042242648364C26403654265B4
:1007D0008365C36503664366826605F00FFA00B958
:1007E00008BDFFF789FF00BFEC04002000A0004017
:1007F00008B51448144B036000238360C36003747E
:10080000437483741022426101228261C2610262D8
:1008100042628262C262026343638363C3630364AE
:10082000042242648364C264036542658365C365D0
:1008300003664366826605F0E1F900B908BDFFF77B
:100840005BFF00BF4C04002000A4004008B5144822
:10085000144B036000238360C36003744374837488
:100860001022426101228261C2610262426282629E
:10087000C262026343638363C3630364042242640A
:100880008364C264036542658365C365036643662A
:10089000826605F0B3F900B908BDFFF72DFF00BF70
:1008A000AC03002000D4004008B51148114B036090
:1008B000114B4360002383600122C26003614361E6
:1008C0008361C361036204F0F3FF50B9002108485B
:1008D00005F052F838B90021054805F07AF820B93A
:1008E00008BDFFF709FFFFF707FFFFF705FF00BF90
:1008F00058030020005C0040FFECC01008B513480E
:10090000134B03604FF48003436000238360032292
:10091000C260036143614FF080628261C361036220
:1009200043628362C3624FF0804242638363C36366
:10093000036443648364C36403654365836505F0AE
:10094000AFFA00B908BDFFF7D7FE00BFD002002004
:100950000030014010B598B00024159416941794F7
:100960000E940F94109411941294139414943422AE
:10097000214601A812F0B9FA3148324B03604460B5
:1009800084604FF6FF73C36004614461846101F0C9
:10099000DBFC002845D12A4801F0A6FC002842D102
:1009A000002315931693179315A9254801F020FEEF
:1009B00000283AD160230E9300220F9210921192D8
:1009C0001292139214920EA91D4801F074FD002892
:1009D0002DD100230E9304220EA9194801F02EFDFB
:1009E00038BB08220EA9164801F028FD18BB0023C9
:1009F000019302930393049305934FF400520692DC
:100A0000079309934FF000720A920B930D9301A97B
:100A10000B4801F045FE80B9094800F061FC18B0B0
:100A200010BDFFF769FEFFF767FEFFF765FEFFF7F2
:100A300063FEFFF761FEFFF75FFEFFF75DFE00BF9D
:100A4000840200200000014000B58BB00023079312
:100A500008930993009301930293039304930593DE
:100A600006931E481E4A0260436083604FF6FF7281
:100A7000C2600361836101F067FC20BB0023079320
:100A8000099307A9154801F0B3FDF0B9602300935D
:100A900000220192029204926946104801F00BFD77
:100AA000A8B9042269460D4801F005FD88B908225D
:100AB00069460A4801F0FFFC68B9084800F010FCDC
:100AC0000BB05DF804FBFFF717FEFFF715FEFFF70D
:100AD00013FEFFF711FEFFF70FFE00BF38020020E4
:100AE0000004004008B51548154B03604FF4E1338E
:100AF000436000238360C36003610C224261836111
:100B0000C36103624362836205F039FF70B900215B
:100B10000A4805F0ACFF58B90021084805F0CCFFA1
:100B200040B9064805F084FF30B908BDFFF7E4FD81
:100B3000FFF7E2FDFFF7E0FDFFF7DEFDA401002077
:100B4000004C004000B59DB04C22002109A812F0D5
:100B5000CCF92022002101A812F0C7F9022004F0EC
:100B600067FD00230093234B9A6922F440429A6167
:100B70009B6903F440430093009B1E4B9B6913F455
:100B8000005FFAD0232309934FF480330A930123A3
:100B90000C9340220D920F930222129213921493FF
:100BA0001921159116930323179318920C23199367
:100BB00000231A931B9309A802F042FEB0B93F2309
:100BC00001930323029300230393082304934023F8
:100BD000059306934FF4806207920893022101A8BF
:100BE00003F01CFA20B91DB05DF804FBFFF784FD8B
:100BF000FFF782FD0048025810B5AEB0B8220021C0
:100C0000684612F072F94FF000420023CDE900234C
:100C1000684603F0C5FC08B92EB010BDFFF76CFDA7
:100C200000B589B0FFF70CFC3A4B5B6913F4003F49
:100C300013D1BFF34F8FBFF36F8F364B0022C3F832
:100C40005022BFF34F8FBFF36F8F5A6942F40032C7
:100C50005A61BFF34F8FBFF36F8F2E4B5B6913F455
:100C6000803F27D12B4B0022C3F88420BFF34F8F46
:100C7000D3F880C0CCF34E3000E01846CCF3C90264
:100C800043F6E07303EA401343EA82732149C1F853
:100C900060321346013A002BF2D1431E0028ECD1FA
:100CA000BFF34F8F4B6943F480334B61BFF34F8FDA
:100CB000BFF36F8F04F09EFDFFF744FFFFF79CFF2B
:100CC000FFF706FCFFF766FDFFF792FDFFF7BEFD9D
:100CD000FFF7EAFDFFF712FEFFF73CFEFFF7B4FE59
:100CE000FFF700FF0C4B0D4A1A600DF1040CDFF802
:100CF00034E0BEE80F00ACE80F009EE807008CE887
:100D00000700002101A811F081F9054B186011F0CE
:100D100065F9FEE700ED00E000000020D84401087E
:100D2000A00100207C430108FEE7000000B583B06D
:100D300019E0009B01330093009A154B9A42F8D9B1
:100D4000144C01224FF40071204604F061FC012292
:100D50004FF48061204604F05BFC00230193019A6C
:100D60000B4B9A420FD90B4C00224FF400712046D6
:100D700004F04EFC00224FF48061204604F048FC51
:100D800000230093D8E7019B01330193E7E700BFFD
:100D90003F420F00000C025800B583B012E0009BE8
:100DA00001330093009A0E4B9A42F8D901224FF476
:100DB00000710C4804F02CFC00230193019A084BAD
:100DC0009A4208D900224FF40071064804F020FC32
:100DD00000230093E6E7019B01330193EEE700BF98
:100DE0001FA10700000C025800B583B012E0009B61
:100DF00001330093009A0E4B9A42F8D901224FF426
:100E000080610C4804F004FC00230193019A084B14
:100E10009A4208D900224FF48061064804F0F8FB9A
:100E200000230093E6E7019B01330193EEE700BF47
:100E30001FA10700000C025800B583B019E0009B09
:100E400001330093009A154B9A42F8D9144C0122B1
:100E50004FF40071204604F0DBFB00224FF4806168
:100E6000204604F0D5FB00230193019A0B4B9A42D4
:100E70000FD90B4C00224FF40071204604F0C8FB40
:100E800001224FF48061204604F0C2FB002300934E
:100E9000D8E7019B01330193E7E700BF1FA10700DB
:100EA000000C02587047000008B5024801F09FF896
:100EB00008BD00BF7891002008B5074A13680133C8
:100EC00013600648036803F58053D3F86021044B90
:100ED0001A6002F0B0F908BD900500204C06002011
:100EE0008C05002008B5024806F03BF908BD00BF9C
:100EF0003C8A002000B583B00A4BD3F8F42042F0BE
:100F00000202C3F8F420D3F8F43003F00203019393
:100F1000019B00220F216FF0010004F00DFC03B0D3
:100F20005DF804FB0044025810B5BAB00446002135
:100F300035913691379138913991B82206A811F040
:100F4000D4FF23685E4A934207D05E4A93423FD063
:100F50005D4A934277D03AB010BD4FF4004200236F
:100F6000CDE9062306A803F01BFB00BB574A136814
:100F700001331360012B1DD0554BD3F8E02042F014
:100F80000802C3F8E020D3F8E03003F0080301932F
:100F9000019B032335930223369300233793389321
:100FA0000923399335A94B4804F028FAD3E7FFF712
:100FB000A3FBDBE7464BD3F8EC2042F48072C3F886
:100FC000EC20D3F8EC3003F480730093009BD3E75C
:100FD0004FF400420023CDE9062306A803F0E0FA0F
:100FE00000BB3A4A136801331360012B1DD0384B04
:100FF000D3F8E02042F00202C3F8E020D3F8E0305A
:1010000003F002030393039B60233593022336937B
:101010000023379338930923399335A92E4804F0D8
:10102000EDF998E7FFF768FBDBE7294BD3F8EC20F5
:1010300042F48072C3F8EC20D3F8EC3003F48073F0
:101040000293029BD3E74FF400420023CDE906232D
:1010500006A803F0A5FA08BB1C4A13680133136005
:10106000012B1ED01A4BD3F8E02042F00802C3F83F
:10107000E020D3F8E03003F008030593059B4FF41C
:101080004053359302233693002337933893052337
:10109000399335A90F4804F0B1F95CE7FFF72CFB51
:1010A000DAE70B4BD3F8EC2042F48072C3F8EC2063
:1010B000D3F8EC3003F480730493049BD2E700BFB1
:1010C00000A0004000A4004000D40040940500208F
:1010D00000440258000C0258000402582DE9F04167
:1010E000B8B004460021339134913591369137914F
:1010F000B82204A811F0F9FE22682A4B9A4202D0C5
:1011000038B0BDE8F08108220023CDE9042304A80B
:1011100003F046FA002842D1234CD4F8E03043F0E3
:101120000403C4F8E030D4F8E03003F00403019382
:10113000019BD4F8E03043F00103C4F8E030D4F868
:10114000E03003F001030293029B4FF400733393EA
:101150004FF01208CDF8D08000253595369504273C
:10116000379733AE3146114804F048F94FF4807395
:101170003393CDF8D08035953695379731460C4866
:1011800004F03CF9D4F8E83043F40003C4F8E83044
:10119000D4F8E83003F400030393039BB0E7FFF7B0
:1011A000ABFAB9E7005C004000440258000802585E
:1011B00000000258F0B5B9B00446002133913491D3
:1011C000359136913791B82204A811F08EFE22682D
:1011D000294B9A4201D039B0F0BD4FF48052002320
:1011E000CDE904234FF480431B9304A803F0D8F9FE
:1011F00000283DD1214BD3F8F02042F48052C3F8AF
:10120000F020D3F8F02002F480520192019AD3F832
:10121000E02042F00102C3F8E020D3F8E02002F021
:1012200001020292029AD3F8E02042F00802C3F8C9
:10123000E020D3F8E03003F008030393039B60231E
:101240003393022734970024359436940526379635
:1012500033AD29460A4804F0D1F8802333933497FC
:101260003594369437962946064804F0C7F8B2E715
:10127000FFF742FABEE700BF0030014000440258C9
:1012800000000258000C025882B00368114A9342D1
:1012900004D0114A93420FD002B070470F4BD3F8DD
:1012A000F02042F00102C3F8F020D3F8F03003F050
:1012B00001030093009BEFE7084BD3F8E82042F0CE
:1012C0000202C3F8E820D3F8E83003F002030193E8
:1012D000019BE1E700000140000400400044025887
:1012E00000B589B0002303930493059306930793F5
:1012F00003681D4A934205D01C4A93421BD009B093
:101300005DF804FB1A4BD3F8E02042F01002C3F85A
:10131000E020D3F8E03003F010030193019B4FF479
:1013200028530393022304930123079303A911482D
:1013300004F064F8E3E70E4BD3F8E02042F0040237
:10134000C3F8E020D3F8E03003F004030293029BDB
:101350004FF4E073039302230493079303A9064811
:1013600004F04CF8CBE700BF00000140000400404F
:1013700000440258001002580008025810B5B6B0D8
:101380000446002131913291339134913591B82244
:1013900002A811F0AAFD22681B4B9A4201D036B078
:1013A00010BD02220023CDE9022302A803F0F8F8C1
:1013B00038BB164BD3F8E82042F40022C3F8E820EB
:1013C000D3F8E82002F400220092009AD3F8E0203B
:1013D00042F00402C3F8E020D3F8E03003F0040345
:1013E0000193019B4FF44063319302233293002316
:1013F000339334930823359331A9054803F0FEFF56
:10140000CDE7FFF779F9D4E7004C004000440258DB
:101410000008025870470000F0B58DB03F4FC02063
:101420003870A82179700123BB700A22FA703C4EF3
:10143000FF2232707270B2700024F470394D28703F
:101440006970AB70EB702146204607F089F93A7855
:101450007B781B0443EA0263BA7843EA0223F978F3
:101460000B431A0202F47F0242EA0162190A01F4F4
:101470007F410A4342EA13632B490B603278737849
:101480001B0443EA0263B27843EA0223F078034381
:101490001A0202F47F0242EA0062180A00F47F4056
:1014A000024342EA1363214A136028786B781B04D5
:1014B00043EA0063A87843EA0023ED782B4318023F
:1014C00000F47F0040EA05601D0A05F47F452843CB
:1014D00040EA1360164B1860164E174802901748E2
:1014E0000190009430460AF083FD30460AF012FE67
:1014F00030460AF015FE124930460AF091FE05AC5E
:10150000104D0FCD0FC495E8070084E80700314661
:1015100005A810F07BFD0DB0F0BD00BFA0050020B8
:101520009C05002098050020AC050020A80500209F
:10153000A4050020B0050020DD8600082D19000854
:1015400015140008984301080020704770B58CB04E
:101550000C46302632460021684611F0C6FC324661
:101560000021684611F0C1FC2246002303E0116807
:10157000F9B1013312682AB3032B4FD8516803EB3A
:10158000430C0CA800EB8C0C4CF8301C51894CF827
:101590002C1C002BEBD003F1FF3C03EB43000DEBC5
:1015A00080010CEB4C0C0CA800EB8C0C4CF8281CAC
:1015B000DDE703EB43010CA800EB8101002041F8BB
:1015C000280CD6E72289174B5A60C3F808D05C6311
:1015D00020460CF0AFF813E0134802F02BF910F09E
:1015E000020F15D04FF4FA61104B186810F0D4FDBB
:1015F0000D4801F0EDFD6FF0010010F1020F0FD169
:101600000849094801F032FD0028E5D10020F4E73F
:1016100020460BF023FF6FF00B00EEE76FF00B009E
:101620000CB070BD140600204C060020FC06002003
:101630002DE9F043A7B00446642200210DA811F063
:1016400054FC644E644B336000258DF82C5080238D
:101650008DF82D30E1238DF82E308DF82F508DF838
:1016600030508DF831500BAB7360012737725B4BF4
:10167000F3605B4B336140F26C437361304602F0C0
:1016800023F88046DFF8709138222946484611F049
:101690002CFC2123C9F800304FF44033C9F8143032
:1016A000504807F0D3F8062384F82C3073681A7872
:1016B00084F826205A7884F827209A7884F82820FD
:1016C000DA7884F829201A7984F82A205B7984F85A
:1016D0002B3040F2DC53A38494F82D3043F00A03FE
:1016E00084F82D3009950A95394609A810F030FD87
:1016F000DFF80891C9F8000007950895394607A852
:1017000010F026FD384E30602946D9F8000010F060
:1017100043FD2946306810F03FFD6D46334E0FCE35
:101720000FC596E8070085E807002146684610F0D7
:101730006DFC2F4D2F49284611F089F9284611F0EC
:10174000A5F940BBB8F1000F3FD1294811F0CDF900
:10175000012827DD04282CD005282ED003282FD1DE
:101760004FF480474FF000080DAE1A4D3146284621
:1017700001F074FECDF84C8012973146284601F0F6
:1017800060FF284601F0DAFB20460AF0C9FC20463B
:101790000AF004FD1BE020460AF024FD20460AF072
:1017A000DDFC14E020460AF01DFD20460AF0D6FCC0
:1017B0000DE000274FF40058D6E70027B846D3E7DE
:1017C0004FF480474FF40058CEE7FEF795FF27B05F
:1017D000BDE8F0834C06002000800240A0020030EB
:1017E0000000003050660108FC060020B4430108E8
:1017F000F40500200400002014060020000700204B
:1018000000B583B000230193054B1B781BB10198F1
:1018100003B05DF804FB01A9024801F05BFCF6E7A8
:10182000040700204C06002038B505464FF0FF3174
:101830000B4B186810F0B0FC0028F7D101E0002C29
:10184000F4D02846FFF7DCFF04460028F7D02B69C8
:10185000294698470028F2D020460BF0FFFDEEE71E
:101860000007002008B50146074807F043F8074B7A
:101870001B78012B00D008BD044B00221A70044BCA
:10188000186810F0B8FCF6E750660108040700205D
:101890000007002008B503F0E7FF08BD08B50248BF
:1018A00001F0DEFE002008BD4C06002008B51346FE
:1018B0000A460146034801F06DFD00B908BD4FF02E
:1018C000FF30FBE74C06002008B513460A460146E8
:1018D000034801F08FFD00B908BD4FF0FF30FBE772
:1018E0004C06002008B5044A136801331360034B0B
:1018F000186810F080FC08BDF005002000070020EB
:1019000008B5024B186810F076FC08BDFC060020F4
:1019100008B501F092FF10F0800F00D108BD024B16
:10192000186810F068FCF9E70007002010B50446BD
:1019300070B1732384F82E30742384F82F30084B51
:101940006361084BA3612046FFF772FE002010BDC3
:10195000054B40F225220549054811F08BFAE8E7CE
:10196000A5E300084D150008F444010810450108DE
:101970002045010808B503F077FF08BD2DE9F041C7
:101980008CB000230793089309930A930B93026882
:101990003F4B9A4202D00CB0BDE8F0813D4BD3F8EA
:1019A000D82042F40042C3F8D820D3F8D82002F45B
:1019B00000420192019AD3F8D82042F48032C3F851
:1019C000D820D3F8D82002F480320292029AD3F8B9
:1019D000D82042F40032C3F8D820D3F8D82002F43B
:1019E00000320392039AD3F8E02042F00402C3F8D5
:1019F000E020D3F8E02002F004020492049AD3F825
:101A0000E02042F00102C3F8E020D3F8E02002F029
:101A100001020592059AD3F8E02042F00202C3F8D1
:101A2000E020D3F8E03003F002030693069B322354
:101A300007934FF00208CDF8208003270A970B2662
:101A40000B9607AD2946144803F0D8FC862307936C
:101A5000CDF82080002409940A970B9629460F4858
:101A600003F0CCFC4FF460530793CDF82080099429
:101A70000A970B9629460A4803F0C0FC2246052126
:101A80003D2003F059FE3D2003F066FE83E700BFD2
:101A9000008002400044025800080258000002582A
:101AA000000402582DE9F043B5B004466422002139
:101AB0001BA811F01AFA00252E462F465BE0454878
:101AC00001F088FA20460AF049FB20460AF08AFB1A
:101AD0001BE04FF400554FF4804601270DF16C09CF
:101AE000DFF8F0804946404601F0B8FC2195209689
:101AF0004946404601F0A5FD404601F01FFA204648
:101B00000AF00EFB20460AF049FB334A1368013302
:101B10001360092B2CD9314B1A68314B1B689A4240
:101B200005D1304B1968304B1B6899421DD0DFF846
:101B3000B490D9F800302D4909680DF108080191D9
:101B400000922B4A6421404611F05CF84046FEF7B3
:101B5000BFFB81B240460DF013FD204B1A68204BAD
:101B60001A60D9F80020204B1A601B4B00221A6023
:101B7000642010F07EFA1F4810F0B7FF94F82D3063
:101B800013F0040F01D0012899DD13F0040FBCD12C
:101B90000128BADD0238032814D801A353F820F035
:101BA000D31A0008BB1B0008B11B0008CB1B0008A0
:101BB0004FF400550026012790E700254FF480469A
:101BC00001278BE7002FA0D088E700252E460127AC
:101BD00084E700BF4C060020EC050020F005002043
:101BE000E805002090050020E40500208C05002079
:101BF00048450108F405002010B582B004460E489F
:101C000006F048FE88B1034600F1200222600B4A2C
:101C1000026140F26C42019222680092412200214E
:101C200008460BF0B1FB02B010BD054B01221A7043
:101C300000232360F7E700BF50660108651800081D
:101C40000407002030B4A2F12004002542F8205CF3
:101C500022F8185C22F8163C056825B10D682C6046
:101C60000C60016805E00460FAE7088918440881FF
:101C700009680029F9D183B1114602F01F0213440B
:101C8000BFF34F8F064AC2F85C122031203B002B75
:101C9000F8DCBFF34F8FBFF36F8F30BC704700BFCE
:101CA00000ED00E008B50BF0D9FB08BDF0B4026A06
:101CB000036A23F001030362466884691E4B2340D4
:101CC0000D681D4322F002028B6813431B4A1C4C13
:101CD000A04218BF90420CBF012200220CD004F594
:101CE0008044A04214BF00240124164FB84203D000
:101CF00014B9154CA04205D123F00803CC68234346
:101D000023F004035AB9114A904214BF0022012261
:101D10000C4CA04203D012B90B4A904205D126F4D4
:101D200040764A6932438E691643466085614A6847
:101D300042630362F0BC70478CFFFEFF000001406D
:101D400000040140004001400048014000440140BF
:101D500070B4036A026A22F4807202624568C46940
:101D60001A4A22400E68164323F400738A6843EA35
:101D70000223174A174CA04218BF90420CBF012201
:101D8000002206D123F40063CC6843EA042323F441
:101D900080635AB9104A904214BF002201220F4CAE
:101DA000A04203D012B90E4A904207D125F4405206
:101DB0004C6942EA04128C6942EA04154560C66126
:101DC0004A68C263036270BC704700BF8CFFFEFFAD
:101DD0000000014000040140004401400040014077
:101DE0000048014070B4036A026A22F48052026221
:101DF0004468C569144A2A400D6842EA052223F462
:101E000000538D6843EA0533104E114DA84218BFA8
:101E1000B0420DD005F58045A84214BF002501252C
:101E200006F58046B04203D015B90A4DA84204D148
:101E300024F480444D6944EA85144460C2614A68D0
:101E40000264036270BC7047FF8CFFFE000001401B
:101E5000000401400048014070B4036A026A22F4A1
:101E6000803202624268456D144E2E400D682E434A
:101E700023F400338C6843EA0443114D114CA04213
:101E800018BFA8420DD004F58044A04214BF00241E
:101E9000012405F58045A84203D014B90A4CA0429C
:101EA00004D122F480324C6942EA04224260466541
:101EB0004A688265036270BC704700BF8FFFFEFFF7
:101EC00000000140000401400048014070B4036A72
:101ED000026A22F4801202624468456D144A2A4064
:101EE0000D6842EA052223F400138D6843EA055386
:101EF000104E114DA84218BFB0420DD005F58045D7
:101F0000A84214BF0025012506F58046B04203D043
:101F100015B90A4DA84204D124F480244D6944EA3D
:101F20008524446042654A68C265036270BC70479C
:101F3000FF8FFFFE00000140000401400048014007
:101F40007047000090F83D30012B42D1022380F809
:101F50003D300268D36843F00103D36003681F4A31
:101F6000B3F1804F18BF934225D0A2F57C42934233
:101F700021D002F5806293421DD002F58062934227
:101F800019D002F57842934215D0A2F56C429342E3
:101F900011D002F5943293420DD0A2F5C042934283
:101FA00009D002F58062934205D01A6842F001021E
:101FB0001A60002070479968094A0A40062A18BF2B
:101FC000B2F5803F07D01A6842F001021A60002083
:101FD0007047012070470020704700BF000001409B
:101FE000070001007047704770477047704770B531
:101FF00004460368DE681D6915F0020F10D016F064
:10200000020F0DD06FF002021A61012303770368FB
:102010009B6913F0030F64D0FFF7E6FF00232377DB
:1020200015F0040F12D016F0040F0FD023686FF0D4
:1020300004021A610223237723689B6913F4407F0B
:1020400055D02046FFF7D0FF0023237715F0080F67
:1020500012D016F0080F0FD023686FF008021A6133
:10206000042323772368DB6913F0030F46D020464F
:10207000FFF7BAFF0023237715F0100F12D016F0E8
:10208000100F0FD023686FF010021A610823237716
:102090002368DB6913F4407F37D02046FFF7A4FFA5
:1020A0000023237715F0010F02D016F0010F33D172
:1020B00015F4025F02D016F0800F35D115F4807F41
:1020C00002D016F0800F37D115F0400F02D016F075
:1020D000400F39D115F0200F02D016F0200F3BD160
:1020E00070BDFFF780FF2046FFF77FFF96E7204691
:1020F000FFF779FF2046FFF778FFA5E72046FFF7B7
:1021000072FF2046FFF771FFB4E72046FFF76BFF31
:102110002046FFF76AFFC3E723686FF001021A61E8
:102120002046FEF7DDFAC3E723686FF402521A6116
:10213000204600F006FBC1E723686FF480721A6145
:10214000204600F0FFFABFE723686FF040021A61F3
:102150002046FFF74BFFBDE723686FF020021A61AE
:10216000204600F0EDFABBE770B403683E4A9042A7
:1021700014BF00220122B0F1804F14BF144642F078
:102180000104ACB9394DA84214BF00250125384ED1
:10219000B0420DD065B905F1804505F58235A842FC
:1021A00014BF0025012506F50066B04200D01DB120
:1021B00023F070034D682B4364BB2C4CA04214BF2A
:1021C000002401242A4DA84224D01CBB04F18044E1
:1021D00004F58234A04214BF0024012405F50065F3
:1021E000A84217D0B4B9234CA04214BF0024012444
:1021F00005F59A35A8420DD064B91F4CA04214BF12
:102200000024012405F50065A84203D014B91B4C35
:10221000A04203D123F44073CC68234323F080030E
:102220004C6923438C68C4620C688462144CA042DD
:1022300008BF42F0010262B90E4A904214BF002268
:10224000012204F57054A04203D012B90D4A904205
:1022500001D10A690263026842F0040202600122AD
:102260004261036070BC70470000014000080040FC
:10227000000400400044014000E0004000E4004051
:10228000000401400048014060B310B5044690F8D6
:102290003D3013B3022384F83D30214651F8040B3E
:1022A000FFF762FF012384F8483084F83E3084F859
:1022B0003F3084F8403084F8413084F8423084F86C
:1022C000433084F8443084F8453084F8463084F84C
:1022D000473084F83D30002010BD80F83C30FFF7D7
:1022E0002FFED7E70120704760B310B5044690F881
:1022F0003D3013B3022384F83D30214651F8040BDE
:10230000FFF732FF012384F8483084F83E3084F828
:102310003F3084F8403084F8413084F8423084F80B
:10232000433084F8443084F8453084F8463084F8EB
:10233000473084F83D30002010BD80F83C30FFF776
:1023400051FED7E70120704760B310B5044690F8FE
:102350003D3013B3022384F83D30214651F8040B7D
:10236000FFF702FF012384F8483084F83E3084F8F8
:102370003F3084F8403084F8413084F8423084F8AB
:10238000433084F8443084F8453084F8463084F88B
:10239000473084F83D30002010BD80F83C30FEF717
:1023A00073FFD7E70120704770B4036A026A22F016
:1023B00010020262456884691A4E26400C6846EA9B
:1023C000042623F020038A6843EA0213164A174CB6
:1023D000A04218BF90420CBF0122002206D123F078
:1023E0008003CC6843EA041323F040035AB9104A2F
:1023F000904214BF002201220E4CA04203D012B919
:102400000D4A904207D125F4406C4A694CEA820C8F
:102410008A694CEA8205456086614A688263036284
:1024200070BC7047FF8CFFFE0000014000040140BB
:1024300000440140004001400048014090F83C3019
:10244000012B36D010B50446012380F83C30142A05
:102450002AD8DFE802F00B29292910292929152972
:1024600029291A2929291F29292924000068FFF769
:102470001DFC002019E00068FFF796FF002014E023
:102480000068FFF765FC00200FE00068FFF7AAFC7A
:1024900000200AE00068FFF7DFFC002005E000688C
:1024A000FFF714FD002000E00120002384F83C30F9
:1024B00010BD0220704738B590F83C30012B00F079
:1024C000958004460D46012380F83C30142A00F222
:1024D0008880DFE802F00B8686861F868686348633
:1024E0008686488686865D86868671000068FFF748
:1024F000DDFB2268936943F00803936122689369C6
:1025000023F0040393612268936929690B43936163
:10251000002067E00068FFF747FF2268936943F4F3
:10252000006393612268936923F480639361226856
:102530009369296943EA01239361002052E000680E
:10254000FFF706FC2268D36943F00803D3612268D1
:10255000D36923F00403D3612268D36929690B434B
:10256000D36100203EE00068FFF73CFC2268D3699D
:1025700043F40063D3612268D36923F48063D36199
:102580002268D369296943EA0123D361002029E045
:102590000068FFF761FC2268536D43F00803536540
:1025A0002268536D23F0040353652268536D296933
:1025B0000B435365002015E00068FFF787FC226895
:1025C000536D43F4006353652268536D23F48063B5
:1025D00053652268536D296943EA0123536500203E
:1025E00000E00120002384F83C3038BD0220FCE7E5
:1025F00090F83C20012A4DD070B40346012280F8A7
:102600003C20022280F83D20026850689468224EE7
:10261000224DAA4218BFB24203D120F470004D6887
:10262000284320F070000D68284350601A681A484B
:10263000B2F1804F18BF82421FD0A0F57C40824289
:102640001BD000F58060824217D000F58060824286
:1026500013D000F5784082420FD0A0F56C40824242
:102660000BD000F59430824207D0A0F5C0408242E2
:1026700003D000F58060824204D124F08004896890
:1026800021439160012283F83D20002083F83C0023
:1026900070BC7047022070470000014000040140F8
:1026A00090F83C30012B44D030B40246012380F82E
:1026B0003C30CB6823F440738868034323F4806381
:1026C0004868034323F400630868034323F48053FA
:1026D0000869034323F400534869034323F4804308
:1026E000086B034323F47023886943EA004323F013
:1026F0008053C869034310680F4D104CA04218BFA7
:10270000A84210D123F470038C6A43EA045323F0E7
:1027100080730C6A234323F000734C6A234323F035
:102720000053C96A0B434364002082F83C0030BC6C
:1027300070470220704700BF0000014000040140C4
:102740007047704770472DE9F04182B0074600237B
:102750000193D0F8688008F1120350F82340C56E49
:10276000012613E001A8FFF747FA019B13B123618B
:10277000236010E000260EE04FF00143E36012E01A
:1027800003F1120257F82240013D984695B18EB1EF
:102790002369002BE6D0002EF8D0BB6D002BEBD0C8
:1027A0004FF04143E36008F10103032BE8D9A8F19E
:1027B0000303E5E7FB6EAB4212D008F1030303F01D
:1027C0000303BFF35F8F3A6903EB430302EBC302DA
:1027D0003B6803F58053C3F82821C7F86880FD667D
:1027E00002B0BDE8F081000030B48B680A68134382
:1027F0000A7943EAC2630A7B43EAC2534A7B43EA4B
:1028000082538A7B43EA4253CA7B43EA02530A7CDF
:10281000002A40F0B0804FF4002213434A7C002A83
:1028200040F0AB804FF4003213438A7C43EA02430A
:102830004A6913438A6913430A7F43EA02334A7F92
:1028400043EAC2238A7F002A40F099804FF48062D5
:102850001343CA7F43EA422391F82020002A40F024
:1028600090804FF4807213434A6A134391F82820F2
:1028700043EA0213CA6A13430468226822F07F42C3
:1028800022F47B0222F4FE4222F07C0213432360F6
:10289000CA6B91F838301B0643EA426391F8302046
:1028A00043EA824391F8312043EA424391F83220CF
:1028B000002A68D14FF4803213434A6B13430468F3
:1028C000626822F07C5222F4EF2222F4FF6222F0AE
:1028D00007021343636091F840204B6C43EA0222E5
:1028E0000468E5682B4B2B401343E36091F85420B8
:1028F0000B6D43EA420391F84C20002A45D1802217
:1029000013438A6C43EA02430468226F22F0F20206
:102910001204120C1343236791F8562091F8553096
:1029200042EA43020468D4F8903023F003031343CF
:10293000C4F890300268D2F8003D23F072038C6D29
:102940002343C2F8003DCB6D91F86020FAB94022D4
:10295000134391F8612043EA021391F8622043EA9D
:10296000C2030168D1F8302D22F07B021343C1F875
:10297000303D30BC704700224FE7002254E7002270
:1029800066E700226FE7002296E70022B8E7002200
:10299000DEE700BFF0FEFFFF10B4026802F58052D0
:1029A0001468234B23400C68234313600A798B6817
:1029B00043EA02330A7B43EAC232036803F5805CD0
:1029C000DCF804401B4B23401343CCF804304A7B13
:1029D0000B6A43EA024C026802F58052D2F80041C9
:1029E000154B234043EA0C03C2F800310B690A7D02
:1029F00043EA02134A7F43EA0232036803F5805C2C
:102A0000DCF804410D4B23401343CCF804310B7F19
:102A1000896941EAC371026802F58052D2F808015F
:102A2000074B03400B43C2F808315DF8044B704775
:102A3000FD87FFFFFE2FFFFF00C0FEFFEFEFC0FF8F
:102A4000FFFFC07F70B5A2B0064601258DF8335058
:102A5000002412948DF841408DF843408DF82850A1
:102A60008DF856508DF832508DF84C408DF88450CA
:102A70004FF400530F938DF85C4018948DF8854007
:102A80008DF886404FF4C36316938DF830400B9455
:102A90008DF835508DF836408DF840401D941B94CC
:102AA00014948DF864408DF87A408DF842502023BC
:102AB00020938DF844508DF855404FF040530993C2
:102AC0004FF480430E938DF8314002231F938DF80D
:102AD00078408DF879408DF854408DF834501A9430
:102AE0008DF8705009A9FFF77FFE8DF8045002950C
:102AF00000948DF81C408DF80D408DF80C404FF47B
:102B0000001306938DF8144004938DF81D404FF484
:102B10000673089369463046FFF73EFF22B070BD4A
:102B200010B4002210E0C46802EB42034FEAC30C69
:102B300004EBC303002144F80C1059609960D9607C
:102B4000911D40F821300132032AECD90023836221
:102B5000036803F580530322C3F82C21C26803687D
:102B600003F58053C3F81421C268036803F580534A
:102B7000C3F820215DF8044B704710B4002113E026
:102B8000046901EB41034FEAC30C04EBC3030022C9
:102B900044F80C205A609A60DA601A615A6101F1B7
:102BA000120240F8223001310329E9D90023C3651C
:102BB00003668366C3668365036803F58053032257
:102BC000C3F830210269036803F58053C3F81C2160
:102BD000036903F14802036803F58053C3F8282111
:102BE0005DF8044B704700002DE9F0419046846A7F
:102BF00000EB84039B69D1F808C0DA68002AC0F2B0
:102C00009281221D00EB8202D269002A40F08D8160
:102C10000A6812F0040F2CD0DA686FF30F024D6AC5
:102C20002A43DA60DA6842F48032DA6005682A6E94
:102C300042F480122A660A6812F0080F19D09A68C6
:102C400092B2CD6A42EA05429A60DA6842F40032F2
:102C5000DA60DA6822F440220D6B2A43DA600568F4
:102C60006A6E42F480126A6605682A6D42F08062DC
:102C70002A650A6812F0100F09D09A686FF30D02E6
:102C80008D692A439A60DA6842F08062DA600A68E5
:102C900012F0140220D0DA6842F08042DA60BFF30A
:102CA0005F8FDA6842F00042DA60661C032E00D9BA
:102CB000E61E00EB86039B69DA68002A01DB01222D
:102CC0000BE000EB8404A269BFF35F8FD36823F0AD
:102CD0000043D360022029E1264602F1010EDCF810
:102CE00000201A609A686FF30D02DCF804502A4342
:102CF0009A60DCF80820002A48D015685D609D685D
:102D0000DFF82CC205EA0C0C55684CEA05459D60BD
:102D10000D6815F0100F41D0DD6825F4F00C0D6A38
:102D20004CEAC545DD60DD68DFF808C205EA0C0C39
:102D3000CD694CEA0505DD60DD6845F48025DD6080
:102D40000D6815F0040F06D09D6825F4404C8D6A7F
:102D50004CEA05059D60DD6845F00055DD60DD68E5
:102D600025F08045DD60BFF35F8FDD6845F00045ED
:102D7000DD600D6815F0020F06D0DD6825F0607C7F
:102D8000CD684CEA0505DD60002564E000225A604C
:102D90009A686FF31D429A606246B9E7DD68DFF812
:102DA00098C105EA0C0C4D684CEA0505DD600D681C
:102DB00015F0010F06D0DD6825F4403C4D694CEA62
:102DC0000505DD600D6815F0200FB9D0DD6825F030
:102DD000406C0D694CEA0505DD60B1E700EB84034A
:102DE0009969002204E000EB8301896901321C46E5
:102DF00072450AD2BFF35F8FCB6823F00043CB60EC
:102E0000631C032BEFD9E31EEDE702208EE00022C6
:102E10005A609A686FF31D429A603A4651E0DE6844
:102E20006FF30E064F683E43DE600E6816F0010F2A
:102E300005D0DE6826F440364F693E43DE6001353A
:102E4000BFF35F8FDE6846F00046DE60DE6826F086
:102E50008046DE6066469768002F41D0DF6827F025
:102E60008057DF6006F1010CBCF1030F01D9A6F118
:102E7000030C00EB8C039B69DE6826F00056DE60D5
:102E8000DE68002EAADB0CF1040600EB8606F6696C
:102E9000002EA3D10EF1010E97683A681A609E6861
:102EA0006FF30D067A6832439A60BA68002AAED092
:102EB00016685E609E686FF31D46576846EA0746CF
:102EC0009E600E6816F0100FA9D0DE686FF3110631
:102ED000CF693E43DE60DE6846F48026DE60AEE702
:102EE000B8F1000F1AD09A6842F000429A60DA688E
:102EF00042F08052DA60C26B331D00EB8303DA616B
:102F00008662EFF31082012383F31088036C2B4455
:102F10000133036482F31088002007E09A6822F0EE
:102F200000429A60E3E7022000E00220BDE8F08161
:102F3000FFFF00C00000FCFF0080FFFFD0F88430DE
:102F4000102B01D00120704710B504462023C0F893
:102F50008430012383650423C366FFF7F4FB2368F1
:102F600003F58053D3F8042142F00102C3F8042191
:102F7000236803F58053D3F8082142F00102C3F817
:102F80000821236803F58053D3F8602142F481724D
:102F9000C3F860212268D2F8003D43F00103C2F873
:102FA000003D2268136843F002031360226813682F
:102FB00043F001031360236803F58053D3F8341101
:102FC0004DF2C1020A43C3F834214023C4F88430CF
:102FD000002010BDD0F88430402B01D00120704774
:102FE0002023C0F88430036803F58053D3F83411EC
:102FF0001D4A0A40C3F83421036803F58053D3F80F
:10300000042122F00102C3F80421036803F5805370
:10301000D3F8082122F00102C3F8082102681368DE
:1030200023F0010313600268D2F8003D43F001036E
:10303000C2F8003D0268136823F002031360002306
:1030400008E003F1120250F82210CA6822F0804210
:10305000CA600133032BF4D9002383651022C0F822
:1030600084201846704700BF3E2FFFFF10B504466E
:1030700029B1D4F88430402B09D0012010BDD0F8FC
:10308000883043F00103C0F888300120F6E74B6B2D
:10309000E36301222046FFF7A7FD38B1D4F888305A
:1030A00043F00203C4F888300120E7E7BFF34F8FF5
:1030B000A36A5A1CA262032A01D9033BA362A26A33
:1030C0002368063254F8222003F58053C3F82021E8
:1030D0000020D3E72DE9F84F044689B18B46D0F89C
:1030E0008430402B71D1D0F85C8008F1120350F885
:1030F0002350C36EC3F1040A4FF000094F4637E076
:10310000D0F8883043F00103C0F8883001205DE03A
:10311000EB6813F0005F02D0002323666366EE685D
:10312000C6F30E06636EF61AEB6813F0805F03D0E9
:10313000EB6823674FF00109B3B22A6904F18001FB
:1031400004F17C00FEF77EFD236E01332366636E7F
:103150003344636600232B6108F10103032B01D97B
:10316000A8F1030303F1120254F8225001379846E4
:10317000EB68002B14DB89F00103574510D27BB1BB
:10318000EB6813F0804F03D06B68A3672B6863670D
:10319000EB6813F0005FBBD1E36F002BB8D1DBE726
:1031A000E36E3B44E36633B9C4F85C80B9F1000FC9
:1031B00005D101200AE02046FFF7C5FAF4E7E36FE6
:1031C000CBF800300020E06700E00120BDE8F88F78
:1031D000F8B50646056C446C012712E0631C032B0E
:1031E00022D9033C0DE0FEF75DFD231D06EB8303B2
:1031F0000022DA61631C032B00D9E31E356473647B
:103200001C469DB197B1013D231D06EB8303D86990
:103210000028E3D0F36804EB440203EBC203DB684D
:10322000002BE0DA0027ECE71C46EAE70020F8BDB7
:103230007047704770472DE9F04104460368D3F8A2
:10324000B06003F58052D2F86051D2F834714FF07B
:10325000B042D2F8A88015F0400F02D017F0400F0E
:103260003BD115F0010F02D017F0010F3ED115F43C
:10327000804F24D017F4804F21D0D4F8883043F009
:103280000803C4F8883015F4805F3AD0236803F54A
:103290008053D3F8602122F46F6222F00D02D20431
:1032A000D20CC4F88C20D3F8342122F44042C3F865
:1032B0003421E023C4F884302046FEF729FB16F4BD
:1032C000C04F2CD116F0100F3ED116F0200F49D16F
:1032D00018F4800F54D1BDE8F08103F5805348F213
:1032E0004002C3F86021FEF7FDFABAE7236803F550
:1032F000805348F20102C3F860212046FEF700FB2C
:10330000B5E7236803F58053D3F8602102F4CD427A
:10331000C4F88C204FF4CD42C3F86021CCE7D4F838
:10332000883043F01003C4F888302368D3F8B830ED
:10333000C4F89030E023C4F884302046FEF7E8FA61
:103340000023C4F89030BDE72368D3F8C03003F001
:103350006003C4F894302046FFF76AFF0023C4F8E6
:103360009430B2E72368D3F8D03003F00F03C4F8E9
:1033700098302046FFF75DFF0023C4F89830A7E798
:103380004FF0B0434FF48002C3F8A8202046FFF767
:1033900051FFA0E770B504461D460068D0F8003222
:1033A00013F0010F01D0012070BDD0F8003223F0DE
:1033B000787343EA415121F4F81343EA024242F0A0
:1033C0000D02C0F8002202F04FFA06462268D2F839
:1033D000001211F0010F07D002F046FA821BB2F57D
:1033E0007A7FF3D90120DFE7D2F804329BB22B6059
:1033F0000020D9E738B504460068D0F8005215F02F
:10340000010F01D0012038BDD0F8000220F0787003
:1034100040EA415121F4F81141EA024222F00C0243
:1034200042F005029BB20C49C1F80432C1F80022F7
:1034300002F01AFA05462368D3F8003213F0010FA0
:1034400007D002F011FA431BB3F57A7FF3D90120BC
:10345000D9E70020D7E700BF00800240002900F034
:10346000EE800268126802F00C02CA6202681268FA
:10347000C2F3001281F828200268126802F060028C
:103480004A620268126802F48072B2FA82F2520949
:1034900081F8202002681268C2F34022CA770268CD
:1034A000126802F48062B2FA82F252098A770268E4
:1034B0001268C2F3C0224A7702681268C2F300326F
:1034C0000A770268126802F400528A610268126880
:1034D00002F480424A6102681268C2F300428A74B0
:1034E0000268126802F40032B2FA82F252094A7497
:1034F0000268126802F40022B2FA82F252090A74D7
:1035000002681268C2F30052CA7302681268C2F3FA
:1035100040528A7302681268C2F380524A7302688A
:103520001268C2F3C0520A730268126802F0E062C5
:103530008A6002681268C2F3C0620A710268126887
:1035400002F0E0420A6002685268C2F30D024A6368
:103550000268526802F48032B2FA82F2520981F8AB
:10356000322002685268C2F3404281F8312002687A
:103570005268C2F3804281F8302002685268C2F378
:10358000006281F8382002685268C2F34462CA635C
:103590000268D268C2F3002281F840200268D26833
:1035A00002F00F024A640268126FC2F3400281F80F
:1035B00054200268126F02F08002B2FA82F25209BD
:1035C00081F84C200268126F02F070020A650268EE
:1035D000126F120C8A640268D2F8902002F0010285
:1035E00081F856200268D2F89020C2F3400281F898
:1035F00055200268D2F8002D02F072028A65026836
:10360000D2F8302D02F02302CA650268D2F8302DBC
:10361000C2F3C00281F862200268D2F8302DC2F3F2
:10362000001281F861200268D2F8302D02F04002C9
:10363000B2FA82F2520981F860200020704701201E
:10364000704751B108B5D0F88430102B01D001205B
:1036500008BDFFF7C9F80020FAE701207047000015
:1036600038B505460368D3F8004224F4706400F0CE
:103670001FFE104B984205D844F400742B68C3F821
:10368000004238BD0C4B984202D244F44074F5E736
:103690000A4B9842F2D90A4B984202D844F48074FB
:1036A000ECE7084B984202D844F48064E6E744F41F
:1036B000A064E3E7BF0E160200879303FFE0F50561
:1036C0007FD1F0087FB2E60E002800F0A78030B569
:1036D00083B00446D0F884309BB3514BD3F8F42028
:1036E00042F00202C3F8F420D3F8F43003F00203EE
:1036F0000193019B237A53BB002002F0CFF8494B82
:103700005B68236803F580531A6842F001021A606F
:1037100002F0AAF80546236803F580531B6813F0EE
:10372000010F19D002F0A0F8401BB0F5FA7FF2D9D2
:103730000423C4F88830E023C4F88430012003B0A7
:1037400030BD2023C0F88430FEF718F9C5E74FF4E8
:10375000000002F0A3F8D2E72046FFF781FF00F057
:10376000A7FD314BA3FB00239B0C2268013BC2F851
:10377000DC302046FFF766F9226802F58052D2F865
:10378000003123F4E01343F40023C2F800316269EE
:1037900012F0030F06D00120C4F88800E023C4F81B
:1037A0008430CCE7216801F58051D1F808316FF3FE
:1037B0004E0343EA4203C1F808312046FFF7B0F94F
:1037C0002046FFF7DAF9636859791B79226843EAE2
:1037D0000123C2F800336268D17893781B0443EA6E
:1037E0000163517843EA0123117822680B43C2F840
:1037F00004332268D2F80C170C4B0B43C2F80C3779
:103800002268D2F810170A4B0B43C2F81037002079
:10381000C4F888001023C4F8843090E70120704772
:10382000004402580004005883DE1B436000020C71
:1038300000C0200CD0F888007047D0F88C0070478A
:10384000002800F0D58238B50446036813F0010F54
:1038500025D0A04A136903F03803926A102B15D0C3
:10386000182B0FD06368B3F5803F3FD0002B53D1A6
:10387000984B1A6822F480321A601A6822F4802267
:103880001A6038E002F00302022AEBD1914B1B6868
:1038900013F4003F03D06368002B00F0AB82236871
:1038A00013F0020F00F088808A4A1369926A13F0BD
:1038B00038035AD0182B55D0E368002B00F0A980AC
:1038C00084490A6822F0190213430B6001F0CCFF0F
:1038D0000546804B1B6813F0040F40F0918001F007
:1038E000C3FF401B0228F4D903208AE2794A1368F7
:1038F00043F48033136063682BB301F0B5FF0546D2
:10390000744B1B6813F4003FC9D101F0ADFF401B9D
:103910006428F5D9032074E2B3F5A02F09D06D4BCC
:103920001A6822F480321A601A6822F480221A601F
:10393000E1E7684B1A6842F480221A601A6842F480
:1039400080321A60D7E701F08FFF0546614B1B6894
:1039500013F4003FA3D001F087FF401B6428F5D982
:1039600003204EE212F0030FA6D15A4B1B6813F04E
:10397000040F03D0E368002B00F03E82554A136821
:1039800023F01903E1680B43136001F06DFF054656
:10399000504B1B6813F0040F06D101F065FF401B6C
:1039A0000228F5D903202CE24A4A536823F0FE434B
:1039B000216943EA01635360236813F0100F51D06B
:1039C000444A136903F03803926A082B39D0182B44
:1039D00033D0E369002B69D03E4A136843F080037B
:1039E000136001F041FF05463A4B1B6813F4807FDA
:1039F00053D101F039FF401B0228F5D9032000E222
:103A0000344A536823F0FE43216943EA016353605B
:103A1000D2E7304A136823F00103136001F024FF5A
:103A200005462C4B1B6813F0040FC5D001F01CFF9A
:103A3000401B0228F5D90320E3E102F00302012A2A
:103A4000C7D1244B1B6813F4807F03D0E369802B1C
:103A500040F0D4811F4AD36823F07C53216A43EAA3
:103A60000163D360236813F0080F49D06369002B0A
:103A700032D0184A536F43F00103536701F0F4FE4C
:103A80000546144B5B6F13F0020F39D101F0ECFEC9
:103A9000401B0228F5D90320B3E10E4AD36823F076
:103AA0007C53216A43EA0163D360DBE7094A136868
:103AB00023F08003136001F0D7FE0546054B1B6819
:103AC00013F4807FCED001F0CFFE401B0228F5D941
:103AD000032096E1004402589D4A536F23F00103EE
:103AE000536701F0C1FE0546994B5B6F13F0020F5F
:103AF00006D001F0B9FE401B0228F5D9032080E171
:103B0000236813F0200F29D0A3699BB1904A136852
:103B100043F48053136001F0A7FE05468C4B1B68ED
:103B200013F4005F1AD101F09FFE401B0228F5D963
:103B3000032066E1864A136823F48053136001F082
:103B400093FE0546824B1B6813F4005F06D001F01C
:103B50008BFE401B0228F5D9032052E1236813F0A5
:103B6000040F21D1636A002B00F04A81784A126960
:103B700002F03802182A00F0F180022B75D0744A46
:103B8000136823F08073136001F06EFE0446704BDF
:103B90001B6813F0007F00F0D88001F065FE001B69
:103BA0000228F4D903202CE16A4A136843F4807395
:103BB000136001F059FE0546664B1B6813F4807FC5
:103BC00006D101F051FE401B6428F5D9032018E10D
:103BD000A368012B0AD00BBB5D4B1A6F22F00102C8
:103BE0001A671A6F22F004021A6704E0584A136F2A
:103BF00043F001031367A36833B301F035FE0546B4
:103C0000534B1B6F13F0020FACD101F02DFE401B84
:103C100041F288339842F3D90320F2E0052B09D012
:103C20004B4B1A6F22F001021A671A6F22F004023E
:103C30001A67E0E7464B1A6F42F004021A671A6FE0
:103C400042F001021A67D6E701F00EFE0546404B2E
:103C50001B6F13F0020F85D001F006FE401B41F2EE
:103C600088339842F3D90320CBE0394A136823F014
:103C70008073136001F0F8FD0546354B1B6813F0A7
:103C8000007F06D001F0F0FD401B0228F5D903208B
:103C9000B7E02F4B996A304A0A40A16AE06A41EACC
:103CA00000110A439A62226B013AC2F30802616B67
:103CB0000139490289B20A43A16B0139090401F4AF
:103CC000FE010A43E16B0139090601F0FE410A4396
:103CD0001A63DA6A22F00102DA625A6B6FF3CF02DA
:103CE000A16C42EAC1025A63DA6A22F00C02216C2A
:103CF0000A43DA62DA6A22F00202616C0A43DA628B
:103D0000DA6A42F48032DA62DA6A42F40032DA6263
:103D1000DA6A42F48022DA62DA6A42F00102DA6296
:103D20001A6842F080721A6001F09EFD0446084B4A
:103D30001B6813F0007F06D101F096FD001B0228DE
:103D4000F5D903205DE000205BE0002059E000BFD2
:103D500000440258004802580CFCFFFF30498A6AB0
:103D6000086B012B4ED002F00303A16A8B424BD1AA
:103D7000C2F30512E36A9A4248D1C0F30802236BEA
:103D8000013B9A4244D1C0F34622636B013B9A4205
:103D900040D1C0F30642A36B013B9A423CD1C0F331
:103DA0000660E36B013B984238D11D4B5B6BC3F35C
:103DB000CC03A26C9A4201D1002022E0184AD36AB7
:103DC00023F00103D36201F04FFD054601F04CFDE5
:103DD000A842FBD0124A536B6FF3CF03A16C43EAA6
:103DE000C1035363D36A43F00103D362002008E0A8
:103DF00001207047012004E0012002E0012000E0E2
:103E0000002038BD0120FCE70120FAE70120F8E797
:103E10000120F6E70120F4E70120F2E70120F0E7B6
:103E200000440258754B1B6903F03803102B00F057
:103E3000DE80182B0FD0002B40F0DB806F4B1B680F
:103E400013F0200F00F0D7806C4B1B68C3F3C10345
:103E50006B48D840704710B4684B9A6A02F003026E
:103E60009C6AC4F30510D96A01F001015B6BC3F3CE
:103E7000CC0301FB03F307EE903AF8EE677A14F4F3
:103E80007C7F77D0012A4AD0022A76D0002A40F0DF
:103E900091805A4B1B6813F0200F23D057490A68B2
:103EA000C2F3C102564BD34007EE103AF8EE476A10
:103EB00007EE100AB8EE476A86EE867A0B6BC3F3FC
:103EC000080306EE903AF8EE666A9FED4E6A67EEDA
:103ED000867A76EEA77AF7EE006A77EEA67A27EE74
:103EE000277A38E007EE100AF8EE476A9FED466A37
:103EF00086EE267A414B1B6BC3F3080306EE903A1D
:103F0000F8EE666A9FED3F6A67EE867A76EEA77AEC
:103F1000F7EE006A77EEA67A27EE277A1BE007EE27
:103F2000100AF8EE476A9FED396A86EE267A334B1F
:103F30001B6BC3F3080306EE903AF8EE666A9FED3A
:103F4000316A67EE867A76EEA77AF7EE006A77EE48
:103F5000A67A27EE277A294B1B6BC3F3462301333E
:103F600007EE903AF8EE677AC7EE276AFCEEE67A3B
:103F700017EE900A5DF8044B704707EE100AF8EE52
:103F8000476A9FED236A86EE267A1C4B1B6BC3F3B0
:103F9000080306EE903AF8EE666A9FED1A6A67EE3D
:103FA000867A76EEA77AF7EE006A77EEA67A27EEA3
:103FB000277AD0E707EE100AF8EE476A9FED136AFA
:103FC00086EE267A0D4B1B6BC3F3080306EE903A80
:103FD000F8EE666A9FED0B6A67EE867A76EEA77A50
:103FE000F7EE006A77EEA67A27EE277AB3E709485C
:103FF0007047094870470248704700BF00440258A4
:104000000090D003000000390024744C0024744A4E
:104010000024744B0024F40000093D00002800F047
:10402000328170B50D4604469B4B1B6803F00F03AD
:104030008B420BD2984A136823F00F030B43136093
:10404000136803F00F038B4240F01F81236813F0C5
:10405000040F0CD02269914B9B6903F070039A42C4
:1040600005D98E498B6923F070031A438A6123684E
:1040700013F0080F0CD06269884BDB6903F0700302
:104080009A4205D98549CB6923F070031A43CA6166
:10409000236813F0100F0CD0A269804BDB6903F486
:1040A000E0639A4205D97D49CB6923F4E0631A4362
:1040B000CA61236813F0200F0CD0E269774B1B6AAA
:1040C00003F070039A4205D974490B6A23F0700318
:1040D0001A430A62236813F0020F0CD0E2686F4B98
:1040E0009B6903F00F039A4205D96C498B6923F051
:1040F0000F031A438A61236813F0010F41D0674A06
:10410000936923F47063A1680B4393616368022B86
:104110000AD0032B27D0012B2CD0604A126812F052
:10412000040F06D10120ADE0126812F4003F00F048
:10413000AE805A490A6922F0070213430B6101F06D
:1041400093FB0646554B1B6903F038036268B3EBDB
:10415000C20F16D001F088FB801B41F288339842D1
:10416000F0D903208EE04D4A126812F0007FE0D1B2
:10417000012087E0494A126812F4807FD9D10120DA
:1041800080E0236813F0020F0CD0E268434B9B6978
:1041900003F00F039A4205D240498B6923F00F03C5
:1041A0001A438A613C4B1B6803F00F03AB420AD9E8
:1041B000394A136823F00F032B431360136803F08D
:1041C0000F03AB4265D1236813F0040F0CD02269B2
:1041D000324B9B6903F070039A4205D22F498B69D9
:1041E00023F070031A438A61236813F0080F0CD080
:1041F00062692A4BDB6903F070039A4205D22749B2
:10420000CB6923F070031A43CA61236813F0100FBF
:104210000CD0A269214BDB6903F4E0639A4205D21A
:104220001E49CB6923F4E0631A43CA61236813F083
:10423000200F0CD0E269194B1B6A03F070039A42FD
:1042400005D216490B6A23F070031A430A62FFF77E
:10425000E9FD12498B69C3F30323114AD35C03F0D0
:104260001F03D8408B6903F00F03D35C03F01F03D7
:1042700020FA03F30B4A13600B4B18600B4B1868C2
:104280000CF076FB70BD012070470120FAE7012099
:10429000F8E70120F6E700BF002000520044025872
:1042A0008466010820000020240000201C0000205B
:1042B00008B5FFF7B7FD0B4A9369C3F303230A4917
:1042C000CB5C03F01F0320FA03F3926902F00F02A4
:1042D000885C00F01F0023FA00F0044A1060044AD2
:1042E000136008BD004402588466010820000020C5
:1042F0002400002008B5FFF7DBFF054BDB69C3F3A3
:104300000213044AD35C03F01F03D84008BD00BF6A
:10431000004402588466010808B5FFF7C9FF054B41
:10432000DB69C3F30223044AD35C03F01F03D840C4
:1043300008BD00BF00440258846601083F230360A3
:10434000114B1A6902F0070242609A6902F4706226
:1043500082609A6902F00F02C2609A6902F07002EC
:104360000261DA6902F070024261DA6902F4E06225
:1043700082611B6A03F07003C361044B1B6803F086
:104380000F030B60704700BF00440258002000522A
:10439000404B9B6A03F00303032B79D070B50546AD
:1043A0000E463C4A136823F08063136001F05CFA08
:1043B0000446384B1B6813F0006F06D001F054FA26
:1043C000031B022BF5D9032070BD324B9A6A22F4ED
:1043D0007C32296842EA01329A626A68013AC2F381
:1043E0000802A9680139490289B20A43E96801391A
:1043F000090401F4FE010A4329690139090601F0A3
:10440000FE410A439A63DA6A22F0C00269690A43EC
:10441000DA62DA6A22F02002A9690A43DA62DA6A09
:1044200022F01002DA62DA6B6FF3CF02E96942EA36
:10443000C102DA63DA6A42F01002DA62C6B91A46D9
:10444000DB6A43F40023D362124A136843F08063AB
:10445000136001F009FA04460E4B1B6813F0006F5D
:1044600014D101F001FA001B0228F5D90320ABE7B3
:10447000012E05D0074AD36A43F40013D362E3E761
:10448000044AD36A43F48013D362DDE700209BE73C
:104490000120704700440258404B9B6A03F003031D
:1044A000032B79D070B505460E463C4A136823F0BD
:1044B0008053136001F0D8F90446384B1B6813F0A1
:1044C000005F06D001F0D0F9031B022BF5D90320C1
:1044D00070BD324B9A6A22F07C72296842EA01521E
:1044E0009A626A68013AC2F30802A968013949026E
:1044F00089B20A43E9680139090401F4FE010A435B
:1045000029690139090601F0FE410A431A64DA6A91
:1045100022F4406269690A43DA62DA6A22F40072BC
:10452000A9690A43DA62DA6A22F48072DA625A6CA2
:104530006FF3CF02E96942EAC1025A64DA6A42F4CF
:104540008072DA62C6B91A46DB6A43F48003D3622A
:10455000124A136843F08053136001F085F9044652
:104560000E4B1B6813F0005F14D101F07DF9001BA6
:104570000228F5D90320ABE7012E05D0074AD36AFC
:1045800043F08073D362E3E7044AD36A43F4000341
:10459000D362DDE700209BE701207047004402580A
:1045A000F8B50446036813F0006F30D0436EB3F5DE
:1045B000001F26D00ED8ABB1B3F5801F07D1022162
:1045C0000830FFF7E5FE054695B12E4621E00126AD
:1045D00035461EE0B3F5401F01D1002508E0012655
:1045E000354616E09B4AD36A43F40033D362002574
:1045F000984A136D23F44013616E0B431365002634
:1046000007E002212830FFF747FF0546DCE70026D8
:104610003546236813F4807F14D0A36D042B34D85F
:10462000DFE803F003252C0808008A4AD36A43F424
:104630000033D36265BB874A136D23F00703A16D76
:104640000B431365236813F4806F47D0D4F8A4306C
:10465000B3F5800F33D020D85BB3B3F5001F19D169
:10466000002104F10800FFF793FE05462DE000212C
:1046700004F10800FFF78CFE0546DBE7002104F19A
:104680002800FFF709FF0546D4E701263546D9E79C
:104690002E46D7E70126354620E0B3F5000F14D0AB
:1046A000B3F5200F11D0B3F5C00F0ED0012635465B
:1046B00014E0684AD36A43F40033D36205E0002172
:1046C00004F12800FFF7E8FE0546E5B9614A936D5D
:1046D00023F46003D4F8A4100B439365236813F408
:1046E000006F36D0D4F8A830B3F1007F22D00FD8B5
:1046F000D3B1B3F1807F08D1002104F10800FFF7A6
:1047000047FE05461CE02E46E8E70126354620E038
:10471000B3F1806F14D0B3F1A06F11D0B3F1407F2B
:104720000ED00126354614E04A4AD36A43F40033DA
:10473000D36205E0002104F12800FFF7ADFE054635
:10474000C5B9444A936D23F0E063D4F8A8100B4335
:104750009365236813F0007F24D0E36C202B13D0E3
:104760000DD8BBB1102B07D13A4AD36A43F40033BA
:10477000D3620FE02E46ECE70126354612E0302BDF
:1047800008D0012635460DE0022104F10800FFF7AC
:10479000FFFD0546D5B92F4AD36C23F03003E16CF9
:1047A0000B43D364236813F4805F31D0E36DB3F51A
:1047B000005F1FD00FD8BBB1B3F5805F08D10021D7
:1047C00004F10800FFF7E4FD054619E02E46E9E78D
:1047D000012635461CE0B3F5405F11D0B3F5804F9C
:1047E0000ED00126354613E01A4AD36A43F400334B
:1047F000D36205E0002104F12800FFF74DFE0546D5
:1048000015BB144A136D23F4E043E16D0B431365AC
:10481000236813F4005F33D0236EB3F5003F27D035
:104820001AD843B1B3F5803F10D1012104F108003B
:10483000FFF7AEFD054615BB064A136D23F4E023D2
:10484000216E0B4313651BE02E46E1E7012635463A
:1048500016E000BF00440258B3F5802FEBD0B3F54B
:10486000A02FE8D0B3F5403FE5D00126354607E05C
:10487000012104F12800FFF70FFE0546DBE72E4675
:10488000236813F4804F30D0D4F8AC30B3F1005F1C
:1048900023D016D843B1B3F1805F0FD1012104F1C9
:1048A0000800FFF775FD0546F5B98B4A936D23F0B7
:1048B000E043D4F8AC100B43936516E0012635466F
:1048C00013E0B3F1804FEFD0B3F1A04FECD0B3F1D0
:1048D000405FE9D00126354607E0012104F12800B8
:1048E000FFF7DAFD0546DFE72E46236813F4004F95
:1048F00020D0E36EB3F1805F06D0B3F1005F11D03A
:104900003BB10126354615E0734AD36A43F40033C0
:10491000D36275B9704A136D23F04053E16E0B43B7
:10492000136507E0012104F10800FFF731FD05469A
:10493000EFE72E46236813F0807F13D0A36C032B80
:104940003BD8DFE803F007023307634AD36A43F436
:104950000033D362A5BB604AD36C23F00303A16C80
:104960000B43D364236813F4800F2BD1236813F017
:10497000010F00F0A380A36F282B00F29D80DFE8D9
:1049800003F08B9B9B9B9B9B9B9B859B9B9B9B9BE0
:104990009B9B949B9B9B9B9B9B9B8B9B9B9B9B9B7E
:1049A0009B9B8B9B9B9B9B9B9B9B8B00022104F166
:1049B0000800FFF7EDFC0546CCE701263546D1E7B8
:1049C0002E46CFE7454A136843F48073136000F026
:1049D0004BFF0746414B1B6813F4807F05D100F065
:1049E00043FFC01B6428F5D90325002D4AD13A4B5B
:1049F0001B6FD4F8B020534013F4407F0CD0364BDB
:104A00001A6F22F44072196F41F480311967196FDF
:104A100021F4803119671A67D4F8B030B3F5807F7C
:104A200015D08DBBD4F8B03003F44072B2F5407F9E
:104A30001ED0294A136923F47C53136126490B6F56
:104A4000D4F8B020C2F30B0213430B678EE700F0DB
:104A50000BFF0746204B1B6F13F0020FE1D100F054
:104A600003FFC01B41F288339842F3D90325D8E7EE
:104A70001948026922F47C52194901EA13131343BD
:104A80000361DBE72E4671E72E466FE7012104F153
:104A90000800FFF77DFC0546E5B90F4A536D23F08A
:104AA0003803A16F0B43536508E0012104F128008E
:104AB000FFF7F2FC0546EFE701263546236813F0C1
:104AC000020F1DD0636F052B32D8DFE803F0110B06
:104AD0002A1111112E46F1E70044025800480258ED
:104AE000CFFFFF00012104F10800FFF751FC05464C
:104AF0000DBBB74A536D23F00703616F0B4353653A
:104B0000236813F0040F29D0D4F89030052B00F25D
:104B10000881DFE813F018001200FF0018001800E9
:104B20001800012104F12800FFF7B6FC0546DFE775
:104B300001263546E4E72E46E2E7012104F10800AC
:104B4000FFF726FC0546002D40F0EE80A04A936D4D
:104B500023F00703D4F890100B439365236813F0F8
:104B6000200F1DD0D4F88C30B3F1005F00F0F0803E
:104B700000F2DF804BB1B3F1805F40F0D7800021BD
:104B800004F10800FFF704FC0546002D40F0E78023
:104B90008F4A536D23F0E043D4F88C100B435365D8
:104BA000236813F0400F1DD0D4F89830B3F5006F90
:104BB00000F0E98000F2D8804BB1B3F5806F40F08F
:104BC000D080002104F10800FFF7E2FB0546002D2C
:104BD00040F0E0807E4A936D23F4E053D4F89810BF
:104BE0000B439365236813F0800F1DD0D4F89C30DD
:104BF000B3F5804F00F0E28000F2D1804BB1B3F505
:104C0000005F40F0C980002104F10800FFF7C0FBFD
:104C10000546002D40F0D9806D4A936D23F4604322
:104C2000D4F89C100B439365236813F0080F0DD044
:104C3000D4F88030B3F5805F00F0CC80644A536DC7
:104C400023F44053D4F880100B435365236813F0CA
:104C5000100F0DD0D4F89430B3F5807F00F0C480ED
:104C60005B4A936D23F44073D4F894100B4393651F
:104C7000236813F4002F1CD0D4F8A030B3F5803F84
:104C800000F0BC80B3F5003F08D0002B40F0BD80A1
:104C9000002104F10800FFF77BFB0546002D40F0E2
:104CA000B7804B4A936D23F44033D4F8A0100B43E4
:104CB0009365236813F4802F1CD0D4F88430B3F5A7
:104CC000001F00F0A780B3F5401F08D0B3F5801F88
:104CD00040F0A7803E4AD36A43F40033D362002DEC
:104CE00040F0A2803A4A536D23F44013D4F8841064
:104CF0000B435365236813F4803F00F0AD80236DB0
:104D0000002B00F09380B3F5803F00F09D800126DA
:104D10003546A1E0012104F12800FFF7BDFB05465F
:104D200011E70126354619E72E4617E701263546D5
:104D300036E7B3F1804F3FF428AFB3F1A04F3FF413
:104D400024AFB3F1405F3FF420AF0126354627E79B
:104D5000022104F12800FFF79FFB054615E72E46C8
:104D60001EE7012635463DE7B3F5805F3FF42FAFE0
:104D7000B3F5A05F3FF42BAFB3F5406F3FF427AF1F
:104D8000012635462EE7022104F12800FFF784FBB7
:104D900005461CE72E4625E70126354644E7B3F5D0
:104DA000004F3FF436AFB3F5204F3FF432AFB3F5C9
:104DB000C04F3FF42EAF0126354635E7022104F1FE
:104DC0002800FFF769FB054623E72E462CE700BFC6
:104DD00000440258022104F12800FFF75DFB00287F
:104DE0003FF42CAF012629E7022104F12800FFF748
:104DF00053FB00283FF434AF012631E7022104F1D0
:104E00002800FFF749FB054648E70126354650E7ED
:104E10002E464EE7012104F12800FFF73DFB054631
:104E20005DE70126354665E72E4663E7694AD36AA2
:104E300043F40033D36275B9664AD36C23F48033EC
:104E4000216D0B43D36407E0022104F10800FFF752
:104E50009FFA0546EFE72E46236813F0005F10D156
:104E6000236813F4003F26D0E36FB3F5807F14D09E
:104E700010D9B3F5007F15D0B3F5407F12D00126CD
:104E800019E0022104F12800FFF706FB0028E7D013
:104E90000126E5E733B101260DE04E4AD36A43F41B
:104EA0000033D362002D5CD14A4A536D23F4407322
:104EB000E16F0B435365236813F4801F06D0454A06
:104EC000136D23F00043216F0B431365236813F424
:104ED000001F06D03F4A136D23F08073A16E0B4371
:104EE0001365236813F0804F09D03A4B1A6922F4F6
:104EF00000421A611A69D4F8B4100A431A6123688F
:104F0000002B06DA334AD36C23F04053616D0B4318
:104F1000D364236813F4000F07D02E4A536D23F493
:104F20004003D4F888100B435365636813F0010FF6
:104F300019D1636813F0020F1ED1636813F0040FD8
:104F400023D1636813F0080F28D1636813F0100FA2
:104F50002DD1636813F0200F32D106B101263046FF
:104F6000F8BD2E46A7E7002104F10800FFF710FA6C
:104F70000028DED00646DCE7012104F10800FFF737
:104F800007FA0028D9D00646D7E7022104F1080025
:104F9000FFF7FEF90028D4D00646D2E7002104F13D
:104FA0002800FFF779FA0028CFD00646CDE7012187
:104FB00004F12800FFF770FA0028CAD00646C8E7B7
:104FC000022104F12800FFF767FA0028C5D0012666
:104FD000C5E700BF0044025808B5FFF769F9054B63
:104FE0001B6AC3F30213044AD35C03F01F03D840C7
:104FF00008BD00BF004402588466010810B4794B14
:105000009A6A9C6AC4F3053CD96AC1F30011DB6B50
:10501000C3F3CC0301FB03F314F47C3F00F0DD8009
:1050200002F0030207EE903AF8EE677A012A4BD0BD
:10503000022A00F09880002A40F0B280694B1B6879
:1050400013F0200F23D067490A68C2F3C102664BF0
:10505000D34007EE103AF8EE476A07EE10CAB8EEF2
:10506000476A86EE867A8B6BC3F3080306EE903AA6
:10507000F8EE666A9FED5D6A67EE867A76EEA77A4D
:10508000F7EE006A77EEA67A27EE277A38E007EE89
:1050900010CAF8EE476A9FED566A86EE267A514BA3
:1050A0009B6BC3F3080306EE903AF8EE666A9FED39
:1050B0004F6A67EE867A76EEA77AF7EE006A77EEA9
:1050C000A67A27EE277A1BE007EE10CAF8EE476AA9
:1050D0009FED486A86EE267A424B9B6BC3F308032A
:1050E00006EE903AF8EE666A9FED406A67EE867AC1
:1050F00076EEA77AF7EE006A77EEA67A27EE277AA1
:10510000384A936BC3F3462307EE903AF8EE677A7A
:10511000F7EE006A77EEA67A87EE276ABCEEC66ADB
:1051200080ED006A936BC3F3064307EE903AF8EE06
:10513000677A77EEA67A87EE276ABCEEC66A80EDBC
:10514000016A936BC3F3066307EE903AF8EE677A51
:1051500077EEA67AC7EE276AFCEEE66AC0ED026A31
:105160005DF8044B704707EE10CAF8EE476A9FEDF2
:10517000226A86EE267A1B4B9B6BC3F3080306EE6E
:10518000903AF8EE666A9FED196A67EE867A76EED7
:10519000A77AF7EE006A77EEA67A27EE277AAFE7CE
:1051A00007EE10CAF8EE476A9FED126A86EE267A7D
:1051B0000C4B9B6BC3F3080306EE903AF8EE666A5D
:1051C0009FED0A6A67EE867A76EEA77AF7EE006AB6
:1051D00077EEA67A27EE277A92E7002303604360F2
:1051E0008360BDE7004402580090D00300000039FE
:1051F0000024744C0024744A0024744B10B4794B7E
:105200009A6A9C6AC4F3055CD96AC1F300215B6C9D
:10521000C3F3CC0301FB03F314F07C7F00F0DD80CB
:1052200002F0030207EE903AF8EE677A012A4BD0BB
:10523000022A00F09880002A40F0B280694B1B6877
:1052400013F0200F23D067490A68C2F3C102664BEE
:10525000D34007EE103AF8EE476A07EE10CAB8EEF0
:10526000476A86EE867A0B6CC3F3080306EE903A23
:10527000F8EE666A9FED5D6A67EE867A76EEA77A4B
:10528000F7EE006A77EEA67A27EE277A38E007EE87
:1052900010CAF8EE476A9FED566A86EE267A514BA1
:1052A0001B6CC3F3080306EE903AF8EE666A9FEDB6
:1052B0004F6A67EE867A76EEA77AF7EE006A77EEA7
:1052C000A67A27EE277A1BE007EE10CAF8EE476AA7
:1052D0009FED486A86EE267A424B1B6CC3F30803A7
:1052E00006EE903AF8EE666A9FED406A67EE867ABF
:1052F00076EEA77AF7EE006A77EEA67A27EE277A9F
:10530000384A136CC3F3462307EE903AF8EE677AF7
:10531000F7EE006A77EEA67A87EE276ABCEEC66AD9
:1053200080ED006A136CC3F3064307EE903AF8EE83
:10533000677A77EEA67A87EE276ABCEEC66A80EDBA
:10534000016A136CC3F3066307EE903AF8EE677ACE
:1053500077EEA67AC7EE276AFCEEE66AC0ED026A2F
:105360005DF8044B704707EE10CAF8EE476A9FEDF0
:10537000226A86EE267A1B4B1B6CC3F3080306EEEB
:10538000903AF8EE666A9FED196A67EE867A76EED5
:10539000A77AF7EE006A77EEA67A27EE277AAFE7CC
:1053A00007EE10CAF8EE476A9FED126A86EE267A7B
:1053B0000C4B1B6CC3F3080306EE903AF8EE666ADA
:1053C0009FED0A6A67EE867A76EEA77AF7EE006AB4
:1053D00077EEA67A27EE277A92E7002303604360F0
:1053E0008360BDE7004402580090D00300000039FC
:1053F0000024744C0024744A0024744BF0B583B02C
:1054000000236BE085685E000324B44025EA0405B0
:10541000CC68B4402C438460456825EA0C054C6890
:10542000C4F300149C402C43446069E0DD08083557
:1054300050F8254003F0070C4FEA8C0C4FF00F0E8C
:105440000EFA0CFE24EA0E0E0C6904FA0CF444EA7F
:105450000E0440F825406BE0092400E0002404FA23
:105460000EF42C430CF1020C664D45F82C404FF025
:10547000B0442568D44325EA02064F6817F4801F1C
:1054800001D042EA05064FF0B0452E606D6804EA8F
:1054900005064F6817F4001F01D042EA05064FF0D9
:1054A000B0456E60D5F8845004EA05064F6817F4DD
:1054B000003F01D042EA05064FF0B045C5F88460D0
:1054C000D5F880502C404E6816F4803F01D042EA57
:1054D00005044FF0B042C2F8804001330A6832FA46
:1054E00003F400F08C804FF0010C0CFA03FC1CEA72
:1054F0000202F2D04C6804F00304013C012C81D973
:105500004C6804F00304032C0CD0C4685D004FF019
:10551000030C0CFA05FC24EA0C0C8C68AC4044EA41
:105520000C04C4604C6804F00304022C3FF47EAF0A
:1055300004684FEA430E4FF0030C0CFA0EFC24EA09
:105540000C0C4C6804F0030404FA0EF444EA0C0456
:1055500004604C6814F4403FBFD02B4CD4F8F45096
:1055600045F00205C4F8F450D4F8F44004F0020405
:105570000194019C4FEA930C0CF10205214C54F864
:10558000255003F0030E4FEA8E0E0F2404FA0EF49A
:1055900025EA04051D4CA0423FF460AF04F5806489
:1055A000A0421ED004F58064A0421CD004F58064A3
:1055B000A0421AD004F58064A04218D004F580649B
:1055C000A04216D004F58064A04214D004F5806493
:1055D000A04212D004F50064A0423FF43DAF0A247B
:1055E0003DE701243BE7022439E7032437E704249D
:1055F00035E7052433E7062431E707242FE703B016
:10560000F0BD00BF000400580044025800000258DA
:105610000AB181617047090481617047436901EAF9
:10562000030221EA030141EA02418161704700005F
:10563000134BDB6813F0040F07D1114BDB6803F049
:10564000070383421AD00120704710B50C4AD36873
:1056500023F007030343D36000F006F90446084B28
:105660005B6813F4005F07D100F0FEF8001BB0F593
:105670007A7FF4D9012000E0002010BD002070479F
:1056800000480258024AD36843F08073D3607047E1
:1056900000480258002807DB00F01F0240090123E0
:1056A0009340024A42F82030704700BF00E100E01A
:1056B000002804DB0901C9B2044B1954704700F0FB
:1056C0000F000901C9B2024B1954704700E400E011
:1056D00014ED00E000B500F00700C0F1070CBCF1CC
:1056E000040F28BF4FF0040C031D062B0FD9C31E57
:1056F0004FF0FF3E0EFA0CF021EA000199400EFA3D
:1057000003FE22EA0E0241EA02005DF804FB0023D8
:10571000EEE700000649CB6823F4E0631B041B0C92
:10572000000200F4E0600343024A1A43CA60704773
:1057300000ED00E00000FA0510B50446054BD868FE
:10574000C0F30220FFF7C6FF01462046FFF7B0FF77
:1057500010BD00BF00ED00E008B5FFF79BFF08BDDE
:10576000BFF35F8F044B5A6A22F480325A620022E0
:10577000C3F89420704700BF00ED00E040F0010046
:10578000054BC3F894005A6A42F480325A62BFF360
:105790004F8FBFF36F8F704700ED00E04378144ADE
:1057A000C2F89830D2F8A03023F00103C2F8A0303C
:1057B0004368C2F89C30017BC37A1B0643EA01733D
:1057C000817A43EAC143417B43EA8143817B43EAD7
:1057D0004143C17B43EA0143417A43EA0123017A11
:1057E00043EA410301780B43C2F8A030704700BF81
:1057F00000ED00E010B50320FFF78CFFFEF712FB71
:105800000F498B69C3F303230E4AD35C03F01F03D4
:10581000D8408B6903F00F03D35C03F01F0320FA19
:1058200003F3094A1360094B18600F200BF0A0F82E
:1058300010B10124204610BD0446FBF75BFBF9E7DD
:105840000044025884660108200000202400002043
:10585000034B1B78034A11680B441360704700BF69
:10586000180000200C070020014B1868704700BF8B
:105870000C07002038B50446FFF7F6FF0546B4F1E3
:10588000FF3F02D0044B1B781C44FFF7EDFF401B89
:10589000A042FAD338BD00BF18000020034A536865
:1058A00023F4600303435360704700BF00040058B3
:1058B00000285DD010B5044690F84130002B46D04A
:1058C000242384F841302268136823F00103136015
:1058D0006368226823F0706313612268936823F47D
:1058E00000439360E368012B36D0A368226843F439
:1058F00004439360E368022B34D02268536823F496
:1059000000635360226851681A4B0B43536022684E
:10591000D36823F40043D360236962691343A16908
:10592000226843EA0123D360E369216A22680B43BA
:1059300013602268136843F0010313600020606461
:10594000202384F84130206384F8420010BD80F8A1
:105950004030FBF7C3FBB3E7A368226843F400437E
:105960009360C7E72268536843F400635360C9E754
:105970000120704700800002034690F84120202A51
:1059800023D190F84020012A21D0012280F8402024
:10599000242280F841200068026822F0010202609F
:1059A0001868026822F480520260186802680A438C
:1059B000026019680A6842F001020A60202283F836
:1059C0004120002083F840007047022070470220E9
:1059D0007047034690F84120202A21D190F84020BA
:1059E000012A1FD0012280F84020242280F8412083
:1059F0000068026822F0010202601868026822F45E
:105A0000706242EA0122026019680A6842F00102EB
:105A10000A60202283F84120002083F8400070476C
:105A2000022070470220704730B4416B0468D4F8FC
:105A300084306F4A134043EA8103C4F88430046819
:105A4000D4F8843023F47F03856B43EA0543C4F81C
:105A50008430836B0B440468D4F88810114041EA09
:105A60008301C4F888100468D4F8881021F4FE017A
:105A7000C56B41EA0541C4F88810C16B03EB4103D3
:105A80000468D4F8A010114041EA8301C4F8A010C2
:105A90000468D4F8A01021F4FE01056C41EA054128
:105AA000C4F8A010016C446C04FB01330468D4F802
:105AB000B010114041EA8301C4F8B0100468D4F872
:105AC000B01021F4FE01856C41EA0541C4F8B01024
:105AD000816CC46C04FB01330468D4F8AC10114031
