:020000040800F2
:100000000000022059150008DD040008DF04000884
:10001000E1040008E3040008E50400080000000013
:10002000000000000000000000000000E7040008DD
:10003000E904000800000000EB040008ED040008DB
:10004000AD150008AD150008AD150008AD15000888
:10005000AD150008AD150008AD150008AD15000878
:10006000AD150008AD150008AD150008AD15000868
:10007000AD150008AD150008AD150008AD15000858
:10008000AD150008AD150008AD150008AD15000848
:10009000AD150008AD150008AD150008AD15000838
:1000A000AD150008AD150008AD150008AD15000828
:1000B000AD150008AD150008AD150008AD15000818
:1000C000AD150008AD150008AD150008AD15000808
:1000D000AD150008AD150008AD150008AD150008F8
:1000E000AD150008AD15000800000000AD150008B2
:1000F000AD150008AD150008AD150008AD150008D8
:10010000AD150008AD150008AD150008AD150008C7
:10011000AD150008AD150008AD150008AD150008B7
:10012000AD150008AD150008AD150008AD150008A7
:10013000AD150008AD150008AD150008AD15000897
:1001400000000000000000000000000000000000AF
:10015000AD150008AD150008AD150008AD15000877
:10016000AD150008AD150008AD150008AD15000867
:10017000AD150008AD150008AD1500080000000021
:10018000AD150008AD150008AD150008AD15000847
:10019000AD150008AD150008AD150008AD15000837
:1001A000AD150008AD150008AD15000800000000F1
:1001B000AD150008AD150008AD150008AD15000817
:1001C000AD150008AD15000800000000000000009B
:1001D0000000000000000000AD1500080000000055
:1001E000000000000000000000000000000000000F
:1001F0000000000000000000AD150008AD1500086B
:10020000AD150008AD15000800000000AD15000890
:10021000AD150008AD150008AD150008AD150008B6
:10022000AD15000800000000AD150008000000003A
:10023000AD150008AD15000800000000AD15000860
:10024000AD150008AD150008AD150008AD15000886
:10025000AD150008AD150008AD150008AD15000876
:10026000AD150008AD150008AD150008AD15000866
:10027000AD150008AD150008AD1500080000000020
:10028000AD150008AD150008AD150008AD15000846
:1002900000000000AD150008AD15000800000000CA
:1002A00000000000AD150008AD150008AD150008F0
:1002B000AD150008AD150008AD150008AD15000816
:0C02C000AD150008AD150008AD150008D4
:1002CC000348044B834202D0034B03B118477047D9
:1002DC001000002010000020000000000548064B14
:1002EC001B1AD90F01EBA301491002D0034B03B128
:1002FC00184770471000002010000020000000007C
:10030C0010B5064C237843B9FFF7DAFF044B13B151
:10031C000448AFF300800123237010BD10000020AF
:10032C00000000000816000808B5054B1BB1054974
:10033C000548AFF30080BDE80840FFF7CFBF00BF12
:10034C0000000000140000200816000830B585B02D
:10035C000024009401940294039400F03FF90123CB
:10036C008DF800308DF8014001941F228DF8082083
:10037C0087228DF809208DF80A408DF80B408DF8F6
:10038C000C308DF80D308DF80E408DF80F4068460E
:10039C0000F042F9042000F02FF905B030BD000048
:1003AC0070B588B003AD00240394049405940694AE
:1003BC000794164BD3F8E02042F00802C3F8E02073
:1003CC00D3F8E02002F008020192019AD3F8E02061
:1003DC0042F00102C3F8E020D3F8E03003F001034F
:1003EC000293029B0A4E22464FF40071304600F0F5
:1003FC0081FF4FF400730393012304930594069437
:10040C002946304600F06CFE08B070BD004402581E
:10041C00000C025872B6FEE700B59DB04C220021CC
:10042C0009A801F0BEF82022002101A801F0B9F8BA
:10043C00022000F06FFF00230093194A936923F404
:10044C00404343F480439361936903F44043009326
:10045C00009B134B9B6913F4005FFAD002230993A2
:10046C0001230C9340230D930023129309A800F051
:10047C00FFF888B93F23019300230293039304935D
:10048C000593069307930893012101A800F0DEFC65
:10049C0020B91DB05DF804FBFFF7BCFFFFF7BAFFF6
:1004AC000048025808B5FFF751FF00F085FFFFF731
:1004BC00B3FFFFF775FF4FF40071044800F020FF05
:1004CC004FF4FA7000F0B8FFF5E700BF000C0258CB
:1004DC00FEE7FEE7FEE7FEE7FEE770477047704772
:1004EC0008B500F097FF08BD82B0074BD3F8F42095
:1004FC0042F00202C3F8F420D3F8F43003F0020304
:10050C000193019B02B0704700440258002804DBA1
:10051C000901C9B2044B1954704700F00F000901CE
:10052C00C9B2024B1954704700E400E014ED00E02E
:10053C0000B500F00700C0F1070CBCF1040F28BF98
:10054C004FF0040C031D062B0FD9C31E4FF0FF3EBA
:10055C000EFA0CF021EA000199400EFA03FE22EA91
:10056C000E0241EA02005DF804FB0023EEE70000F6
:10057C000649CB6823F4E0631B041B0C000200F457
:10058C00E0600343024A1A43CA60704700ED00E082
:10059C000000FA0510B50446054BD868C0F30220DC
:1005AC00FFF7C6FF01462046FFF7B0FF10BD00BFA6
:1005BC0000ED00E00138B0F1807F0BD24FF0E0236A
:1005CC005861054AF02182F8231000209861072217
:1005DC001A6170470120704700ED00E0BFF35F8F98
:1005EC00044B5A6A22F480325A620022C3F89420D7
:1005FC00704700BF00ED00E040F00100054BC3F870
:10060C0094005A6A42F480325A62BFF34F8FBFF3A0
:10061C006F8F704700ED00E04378144AC2F89830B1
:10062C00D2F8A03023F00103C2F8A0304368C2F81E
:10063C009C30017BC37A1B0643EA0173817A43EA3F
:10064C00C143417B43EA8143817B43EA4143C17B04
:10065C0043EA0143417A43EA0123017A43EA410325
:10066C0001780B43C2F8A030704700BF00ED00E0EA
:10067C00002800F0D58238B50446036813F0010F4A
:10068C0025D0A04A136903F03803926A102B15D0B9
:10069C00182B0FD06368B3F5803F3FD0002B53D19C
:1006AC00984B1A6822F480321A601A6822F480225D
:1006BC001A6038E002F00302022AEBD1914B1B685E
:1006CC0013F4003F03D06368002B00F0AB82236867
:1006DC0013F0020F00F088808A4A1369926A13F0B3
:1006EC0038035AD0182B55D0E368002B00F0A980A2
:1006FC0084490A6822F0190213430B6000F096FE3D
:10070C000546804B1B6813F0040F40F0918000F0FD
:10071C008DFE401B0228F4D903208AE2794A136823
:10072C0043F48033136063682BB300F07FFE0546FF
:10073C00744B1B6813F4003FC9D100F077FE401BCB
:10074C006428F5D9032074E2B3F5A02F09D06D4BC2
:10075C001A6822F480321A601A6822F480221A6015
:10076C00E1E7684B1A6842F480221A601A6842F476
:10077C0080321A60D7E700F059FE0546614B1B68C2
:10078C0013F4003FA3D000F051FE401B6428F5D9B0
:10079C0003204EE212F0030FA6D15A4B1B6813F044
:1007AC00040F03D0E368002B00F03E82554A136817
:1007BC0023F01903E1680B43136000F037FE054684
:1007CC00504B1B6813F0040F06D100F02FFE401B9A
:1007DC000228F5D903202CE24A4A536823F0FE4341
:1007EC00216943EA01635360236813F0100F51D061
:1007FC00444A136903F03803926A082B39D0182B3A
:10080C0033D0E369002B69D03E4A136843F0800370
:10081C00136000F00BFE05463A4B1B6813F4807F07
:10082C0053D100F003FE401B0228F5D9032000E24F
:10083C00344A536823F0FE43216943EA0163536051
:10084C00D2E7304A136823F00103136000F0EEFD89
:10085C0005462C4B1B6813F0040FC5D000F0E6FDC9
:10086C00401B0228F5D90320E3E102F00302012A20
:10087C00C7D1244B1B6813F4807F03D0E369802B12
:10088C0040F0D4811F4AD36823F07C53216A43EA99
:10089C000163D360236813F0080F49D06369002B00
:1008AC0032D0184A536F43F00103536700F0BEFD7A
:1008BC000546144B5B6F13F0020F39D100F0B6FDF7
:1008CC00401B0228F5D90320B3E10E4AD36823F06C
:1008DC007C53216A43EA0163D360DBE7094A13685E
:1008EC0023F08003136000F0A1FD0546054B1B6847
:1008FC0013F4807FCED000F099FD401B0228F5D96F
:10090C00032096E1004402589D4A536F23F00103E3
:10091C00536700F08BFD0546994B5B6F13F0020F8C
:10092C0006D000F083FD401B0228F5D9032080E19E
:10093C00236813F0200F29D0A3699BB1904A136848
:10094C0043F48053136000F071FD05468C4B1B681B
:10095C0013F4005F1AD100F069FD401B0228F5D991
:10096C00032066E1864A136823F48053136000F079
:10097C005DFD0546824B1B6813F4005F06D000F04A
:10098C0055FD401B0228F5D9032052E1236813F0D2
:10099C00040F21D1636A002B00F04A81784A126956
:1009AC0002F03802182A00F0F180022B75D0744A3C
:1009BC00136823F08073136000F038FD0446704B0D
:1009CC001B6813F0007F00F0D88000F02FFD001B97
:1009DC000228F4D903202CE16A4A136843F480738B
:1009EC00136000F023FD0546664B1B6813F4807FF3
:1009FC0006D100F01BFD401B6428F5D9032018E13B
:100A0C00A368012B0AD00BBB5D4B1A6F22F00102BD
:100A1C001A671A6F22F004021A6704E0584A136F1F
:100A2C0043F001031367A36833B300F0FFFC0546E2
:100A3C00534B1B6F13F0020FACD100F0F7FC401BB3
:100A4C0041F288339842F3D90320F2E0052B09D008
:100A5C004B4B1A6F22F001021A671A6F22F0040234
:100A6C001A67E0E7464B1A6F42F004021A671A6FD6
:100A7C0042F001021A67D6E700F0D8FC0546404B5D
:100A8C001B6F13F0020F85D000F0D0FC401B41F21D
:100A9C0088339842F3D90320CBE0394A136823F00A
:100AAC008073136000F0C2FC0546354B1B6813F0D5
:100ABC00007F06D000F0BAFC401B0228F5D90320B9
:100ACC00B7E02F4B996A304A0A40A16AE06A41EAC2
:100ADC0000110A439A62226B013AC2F30802616B5D
:100AEC000139490289B20A43A16B0139090401F4A5
:100AFC00FE010A43E16B0139090601F0FE410A438C
:100B0C001A63DA6A22F00102DA625A6B6FF3CF02CF
:100B1C00A16C42EAC1025A63DA6A22F00C02216C1F
:100B2C000A43DA62DA6A22F00202616C0A43DA6280
:100B3C00DA6A42F48032DA62DA6A42F40032DA6259
:100B4C00DA6A42F48022DA62DA6A42F00102DA628C
:100B5C001A6842F080721A6000F068FC0446084B78
:100B6C001B6813F0007F06D100F060FC001B02280C
:100B7C00F5D903205DE000205BE0002059E000BFC8
:100B8C0000440258004802580CFCFFFF30498A6AA6
:100B9C00086B012B4ED002F00303A16A8B424BD1A0
:100BAC00C2F30512E36A9A4248D1C0F30802236BE0
:100BBC00013B9A4244D1C0F34622636B013B9A42FB
:100BCC0040D1C0F30642A36B013B9A423CD1C0F327
:100BDC000660E36B013B984238D11D4B5B6BC3F352
:100BEC00CC03A26C9A4201D1002022E0184AD36AAD
:100BFC0023F00103D36200F019FC054600F016FC4B
:100C0C00A842FBD0124A536B6FF3CF03A16C43EA9B
:100C1C00C1035363D36A43F00103D362002008E09D
:100C2C0001207047012004E0012002E0012000E0D7
:100C3C00002038BD0120FCE70120FAE70120F8E78D
:100C4C000120F6E70120F4E70120F2E70120F0E7AC
:100C5C0000440258754B1B6903F03803102B00F04D
:100C6C00DE80182B0FD0002B40F0DB806F4B1B6805
:100C7C0013F0200F00F0D7806C4B1B68C3F3C1033B
:100C8C006B48D840704710B4684B9A6A02F0030264
:100C9C009C6AC4F30510D96A01F001015B6BC3F3C4
:100CAC00CC0301FB03F307EE903AF8EE677A14F4E9
:100CBC007C7F77D0012A4AD0022A76D0002A40F0D5
:100CCC0091805A4B1B6813F0200F23D057490A68A8
:100CDC00C2F3C102564BD34007EE103AF8EE476A06
:100CEC0007EE100AB8EE476A86EE867A0B6BC3F3F2
:100CFC00080306EE903AF8EE666A9FED4E6A67EED0
:100D0C00867A76EEA77AF7EE006A77EEA67A27EE69
:100D1C00277A38E007EE100AF8EE476A9FED466A2C
:100D2C0086EE267A414B1B6BC3F3080306EE903A12
:100D3C00F8EE666A9FED3F6A67EE867A76EEA77AE2
:100D4C00F7EE006A77EEA67A27EE277A1BE007EE1D
:100D5C00100AF8EE476A9FED396A86EE267A334B15
:100D6C001B6BC3F3080306EE903AF8EE666A9FED30
:100D7C00316A67EE867A76EEA77AF7EE006A77EE3E
:100D8C00A67A27EE277A294B1B6BC3F34623013334
:100D9C0007EE903AF8EE677AC7EE276AFCEEE67A31
:100DAC0017EE900A5DF8044B704707EE100AF8EE48
:100DBC00476A9FED236A86EE267A1C4B1B6BC3F3A6
:100DCC00080306EE903AF8EE666A9FED1A6A67EE33
:100DDC00867A76EEA77AF7EE006A77EEA67A27EE99
:100DEC00277AD0E707EE100AF8EE476A9FED136AF0
:100DFC0086EE267A0D4B1B6BC3F3080306EE903A76
:100E0C00F8EE666A9FED0B6A67EE867A76EEA77A45
:100E1C00F7EE006A77EEA67A27EE277AB3E7094851
:100E2C007047094870470248704700BF0044025899
:100E3C000090D003000000390024744C0024744A44
:100E4C0020BCBE4B40787D0100093D00002800F01D
:100E5C00328170B50D4604469B4B1B6803F00F03A3
:100E6C008B420BD2984A136823F00F030B43136089
:100E7C00136803F00F038B4240F01F81236813F0BB
:100E8C00040F0CD02269914B9B6903F070039A42BA
:100E9C0005D98E498B6923F070031A438A61236844
:100EAC0013F0080F0CD06269884BDB6903F07003F8
:100EBC009A4205D98549CB6923F070031A43CA615C
:100ECC00236813F0100F0CD0A269804BDB6903F47C
:100EDC00E0639A4205D97D49CB6923F4E0631A4358
:100EEC00CA61236813F0200F0CD0E269774B1B6AA0
:100EFC0003F070039A4205D974490B6A23F070030E
:100F0C001A430A62236813F0020F0CD0E2686F4B8D
:100F1C009B6903F00F039A4205D96C498B6923F046
:100F2C000F031A438A61236813F0010F41D0674AFB
:100F3C00936923F47063A1680B4393616368022B7C
:100F4C000AD0032B27D0012B2CD0604A126812F048
:100F5C00040F06D10120ADE0126812F4003F00F03E
:100F6C00AE805A490A6922F0070213430B6100F064
:100F7C005DFA0646554B1B6903F038036268B3EB08
:100F8C00C20F16D000F052FA801B41F288339842FF
:100F9C00F0D903208EE04D4A126812F0007FE0D1A8
:100FAC00012087E0494A126812F4807FD9D10120D0
:100FBC0080E0236813F0020F0CD0E268434B9B696E
:100FCC0003F00F039A4205D240498B6923F00F03BB
:100FDC001A438A613C4B1B6803F00F03AB420AD9DE
:100FEC00394A136823F00F032B431360136803F083
:100FFC000F03AB4265D1236813F0040F0CD02269A8
:10100C00324B9B6903F070039A4205D22F498B69CE
:10101C0023F070031A438A61236813F0080F0CD075
:10102C0062692A4BDB6903F070039A4205D22749A7
:10103C00CB6923F070031A43CA61236813F0100FB5
:10104C000CD0A269214BDB6903F4E0639A4205D210
:10105C001E49CB6923F4E0631A43CA61236813F079
:10106C00200F0CD0E269194B1B6A03F070039A42F3
:10107C0005D216490B6A23F070031A430A62FFF774
:10108C00E9FD12498B69C3F30323114AD35C03F0C6
:10109C001F03D8408B6903F00F03D35C03F01F03CD
:1010AC0020FA03F30B4A13600B4B18600B4B1868B8
:1010BC0000F05AF970BD012070470120FAE70120B9
:1010CC00F8E70120F6E700BF002000520044025868
:1010DC0020160008080000200C000020040000204E
:1010EC00F0B583B000236BE085685E000324B44048
:1010FC0025EA0405CC68B4402C438460456825EA95
:10110C000C054C68C4F300149C402C43446069E00B
:10111C00DD08083550F8254003F0070C4FEA8C0C1D
:10112C004FF00F0E0EFA0CFE24EA0E0E0C6904FAA8
:10113C000CF444EA0E0440F825406BE0092400E06E
:10114C00002404FA0EF42C430CF1020C664D45F805
:10115C002C404FF0B0442568D44325EA02064F6872
:10116C0017F4801F01D042EA05064FF0B0452E60FF
:10117C006D6804EA05064F6817F4001F01D042EAB7
:10118C0005064FF0B0456E60D5F8845004EA0506AC
:10119C004F6817F4003F01D042EA05064FF0B04506
:1011AC00C5F88460D5F880502C404E6816F4803F0A
:1011BC0001D042EA05044FF0B042C2F8804001333E
:1011CC000A6832FA03F400F08C804FF0010C0CFA30
:1011DC0003FC1CEA0202F2D04C6804F00304013C4C
:1011EC00012C81D94C6804F00304032C0CD0C46886
:1011FC005D004FF0030C0CFA05FC24EA0C0C8C6817
:10120C00AC4044EA0C04C4604C6804F00304022CA7
:10121C003FF47EAF04684FEA430E4FF0030C0CFA18
:10122C000EFC24EA0C0C4C6804F0030404FA0EF4D3
:10123C0044EA0C0404604C6814F4403FBFD02B4CBF
:10124C00D4F8F45045F00205C4F8F450D4F8F44046
:10125C0004F002040194019C4FEA930C0CF102057A
:10126C00214C54F8255003F0030E4FEA8E0E0F2438
:10127C0004FA0EF425EA04051D4CA0423FF460AFBD
:10128C0004F58064A0421ED004F58064A0421CD0FA
:10129C0004F58064A0421AD004F58064A04218D0F2
:1012AC0004F58064A04216D004F58064A04214D0EA
:1012BC0004F58064A04212D004F50064A0423FF40F
:1012CC003DAF0A243DE701243BE7022439E7032420
:1012DC0037E7042435E7052433E7062431E70724F0
:1012EC002FE703B0F0BD00BF0004005800440258C3
:1012FC00000002580AB1816170470904816170478E
:10130C00436901EA030221EA030141EA02418161D6
:10131C0070470000134BDB6813F0040F07D1114B1F
:10132C00DB6803F0070383421AD00120704710B525
:10133C000C4AD36823F007030343D36000F076F81C
:10134C000446084B5B6813F4005F07D100F06EF89D
:10135C00001BB0F57A7FF4D9012000E0002010BD0D
:10136C000020704700480258104B1B780BB9012025
:10137C00704710B504464FF47A70B0FBF3F30C4A87
:10138C001068B0FBF3F0FFF715F968B90F2C01D911
:10139C0001200AE0002221464FF0FF30FFF7FAF857
:1013AC00044B1C60002000E0012010BD0000002058
:1013BC000C0000200400002010B50320FFF7D8F823
:1013CC00FFF748FC0F498B69C3F303230E4AD35C28
:1013DC0003F01F03D8408B6903F00F03D35C03F0B9
:1013EC001F0320FA03F3094A1360094B18600F20FE
:1013FC00FFF7BAFF10B10124204610BD0446FFF7D9
:10140C0073F8F9E700440258201600080800002081
:10141C000C000020034B1B78034A11680B4413602B
:10142C00704700BF000000202C000020014B186802
:10143C00704700BF2C00002038B50446FFF7F6FFBC
:10144C000546B4F1FF3F02D0044B1B781C44FFF758
:10145C00EDFF401BA042FAD338BD00BF00000020B6
:10146C002B4AD2F8883043F47003C2F88830294BE9
:10147C001B6803F00F03062B06D8264A136823F0CB
:10148C000F0343F007031360234B1A6842F0010269
:10149C001A6000221A611968204A0A401A601D4B12
:1014AC001B6813F0080F06D01A4A136823F00F03B9
:1014BC0043F007031360184B00229A61DA611A6239
:1014CC00174999621749D962174919635A63996385
:1014DC00DA6319645A64196821F4802119601A6658
:1014EC00D3F8D43013F4805F10D10B4BD3F8D42045
:1014FC0042F48052C3F8D4200C4A43F2D20111605A
:10150C00D3F8D42022F48052C3F8D420704700BF03
:10151C0000ED00E000200052004402587FEDF6EA96
:10152C00000202020000FF01800201010040005293
:10153C00054AD36843F00203D360034B5B6813F492
:10154C00005FFAD0704700BF00480258DFF838D06F
:10155C00FFF7EEFFFFF784FF0C480D490D4A0023FF
:10156C0002E0D458C4500433C4188C42F9D30A4A4C
:10157C000A4C002301E013600432A242FBD300F0BA
:10158C0019F8FEF78FFF70470000022000000020C2
:10159C001000002038160008100000203000002039
:1015AC00FEE702440346934200D1704703F8011B47
:1015BC00F9E7000070B50D4B0D4D5B1B9C10002620
:1015CC00A64209D100F01AF80A4D0B4B5B1B9C107C
:1015DC000026A64205D170BD55F8043B984701364C
:1015EC00EEE755F8043B98470136F2E73016000851
:1015FC00301600083016000834160008F8B500BF85
:10160C00F8BC08BC9E467047F8B500BFF8BC08BCD7
:04161C009E4670472F
:101620000000000001020304010203040607080988
:041630003503000876
:041634000D0300089A
:1016380001000000100000000090D0030090D003CB
:040000050800155981
:00000001FF
